:100000000C94AE0E0C94E30E0C94E30E0C94E30EE1
:100010000C94E30E0C94E30E0C94E30E0C94E30E9C
:100020000C94E30E0C94E30E0C9469240C94D824E5
:100030000C94E30E0C94E30E0C94E30E0C94E30E7C
:100040000C94E30E0C9440290C94E30E0C94E30EF4
:100050000C94E30E0C94E30E0C94E30E0C941F240A
:100060000C94E30E0C94E30E0C94E30E0C94E30E4C
:100070000C94E30E0C94E30E0C94E30E0C94E30E3C
:100080000C94E30E0C94E30E0C94E30E0C94E30E2C
:100090000C940A270C94E30E0C94E30E0C94E30EDC
:1000A0000C94E30E0C94E30E0C94E30E0001020397
:1000B0001011121320212223070605041716151408
:1000C0002726252408090A0B18191A1B28292A2B68
:1000D0000F0E0D0C1F1E1D1C2F2E2D2C00000000BE
:1000E0002300260029002C002F00080B000202022A
:1000F00000000904000001020200000524001001B4
:100100000524010101042402060524060001070557
:10011000810310004009040100020A0000000705E5
:1001200002024000000705830240000004030904A6
:1001300012010002EF02014041233680000101025A
:10014000030141726475696E6F204C4C430041722B
:100150006475696E6F204C656F6E6172646F003DEF
:100160003D3D2043414C4942524154494F4E204469
:100170004F4E45203D3D3D0072617720696E6465BC
:10018000783A20003D3D3D2043414C494252415484
:10019000494F4E204D4F4445203D3D3D000000005D
:1001A00000240027002A002D003000000000002558
:1001B0000028002B002E0031000404040404030472
:1001C00005020202020403020202020606060606F5
:1001D00006040402020204040408020110408040E4
:1001E000102040804080080204018040201002015D
:1001F000108010204040200000000200090F000085
:10020000030401000C0000000000000000000000DA
:100210000000000000008300030304050406050A33
:100220001400FC0DFC0D0001EC03BF055E20060070
:1002300010D6002108D218D4783011220B4634D5BC
:10024000103149421100231AB932D493082542894A
:10025000E8109208254289E81092082542890C008E
:100260002417D812D4135A542832894C22344A64A1
:10027000129984A26294012514C912D4194974A157
:100280004DC472B15C2C9951F434012619D912D4A1
:100290009A4A8412A14448164F2542918436918986
:1002A0002624920027085218D5384800280DD51664
:1002B000D413A989643ACA840A290ED514D410AA81
:1002C00009653AC9446A002A0E7872D41169231D5F
:1002D00042349116002B0C7872D413AB1D62623538
:1002E000002C0834F6D39958002D0718D2D43804BE
:1002F0002E073318D438082F10C714D455940AA5E4
:1003000042A9502A944A013011D812D493D2445AA7
:10031000843C4A44DAA83200310DD812D4930E69D5
:1003200012B1FE76083212D812D4A2892442A25801
:100330005538942A8B0F013314D812D4A289244241
:10034000A2582A9CCB8944894846023414D812D436
:100350000E4B87348948452691490E51B116003518
:1003600012D812D4388C75198DE4623151229291D1
:10037000003615D812D4A28924C288586534920850
:10038000394A443212003712D812D4388455C55233
:10039000B1542C154BC552003815D812D4A289245B
:1003A00042468948461349848C12918C043914D8EA
:1003B00012D4A28924428E12D18A58252811C94804
:1003C000003A088318D4B0430D3B0A94F6D359473A
:1003D0009B58003C0BD712D48E0AF5ACE7003D0ABF
:1003E0006872D438C4713C043E0BD714D408EBA314
:1003F0005EC3003F10D812D4A289244246A9667574
:10040000B858064016D812D4A289244292E522A1F7
:100410004828121691BA4C5401410FD812D493D2E5
:10042000445A848C87228F024216D812D4A889D4C9
:100430002432894C22129964122137890900431011
:10044000D812D4A2892442B27E9488642400440D38
:10045000D812D430C92442FE9BC404450DD812D40E
:10046000388C753689753E04460CD812D4388C7594
:100470003689F50C4711D812D4A2892442B226231A
:100480004789684409480CD812D410F2F150E4A30B
:1004900000490CD812D438C4C4FA6F87004A0FD967
:1004A00012D4B3CAF5934C2453910E014B14D812B5
:1004B000D410B249641291A69A4837894C22240A72
:1004C0004C0AD812D410EB7F3E044D14D812D4102D
:1004D000124BA6834542915024140991A3004E1259
:1004E000D812D410D66A261345429190DC1A89029C
:1004F0004F0FD812D4A2892442FE5122929100506B
:100500000FD812D430C92442DE2426B1CE005111B6
:10051000E8F2D3A2892442FE22215144B2BA005209
:1005200012D812D430C92442DE24266D12994448D0
:10053000145313D812D4A2892442B25C4E57264ACF
:1005400044321200540BD812D438C4C4FADF005518
:100550000DD812D410F23F4A44321200560FD8126E
:10056000D410729488F4466415AB015712D812D493
:1005700010F245429150241449C954240A5813D802
:1005800012D4101225226D44AA9448136911120541
:10059000590FD812D4101225226D44AA58DF005AE0
:1005A00010D812D438845595A5CA5265F121005B44
:1005B0000AD614D43804F51F0D5C10C714D4908AE1
:1005C000A562A9582A968AA5025D0AD614D430EAF3
:1005D0003F1E025E0B4832D593D24412A1005F0742
:1005E00019F2D3380860073456D59029610E881265
:1005F000D42AC9C49283905152096211D812D410DE
:10060000EB65349208399624921100630D8812D458
:100610002AC9C8DA65A20A00640ED812D4D6D34417
:10062000A9C851225A11650F8812D4A28924C24345
:10063000592E135500660DD812D4A38974161AC505
:10064000FA086714C892D3A9CC6A129944262AC919
:100650002D4246890500680DD812D410EB653492FE
:1006600008F928690CB812D413CBA1647D3B046A45
:100670000EF794D3558751F595C626A9006B12D86D
:1006800012D410EB4D225291116B22358950006C1F
:100690000AD812D421EB7F3B046D138812D488A8AA
:1006A0001C26128A8422A14828128A026E0C881203
:1006B000D4908C4612211F056F0E8812D4A2892473
:1006C000428E12918C047011C892D3908C461221E4
:1006D000C7924432126B06710EC892D39A2815390C
:1006E0004A442B621D720C8812D490904612B15E5F
:1006F00001730D8812D4B108E97631516201740D8D
:10070000B812D4122B1AC57A925100750B8812D4E4
:1007100010F251225A11760E8812D4101225226D31
:1007200044AA580677108812D4107291502414C924
:100730006122920078108812D4104A4432AA584A92
:10074000134984027911C892D310F251225A11131D
:1007500025221909007A098714D4B80AF57A7B0C86
:10076000D812D4A48975A38B75277C07D218D4F826
:10077000507D0DD812D4A08B75A7897523027E0BEE
:100780003852D5195124A409000000000804640758
:1007900017FFFF0400110813D499CB8187B1CE262F
:1007A000B1CE87000401110813D41169071DC63AA0
:1007B0009BC43A1F0204021CF9D0D33804E5EA4571
:1007C000914C2413C94432914C2413C94472B1048E
:1007D0000004030E0813D41BCAA187B1FE670004EE
:1007E0000413D812D4A2892442B2F245AC51229209
:1007F0009100040514D812D4A2892442B25C4E5749
:10080000264A4432120004060DD812D438C4C4FA61
:100810006F87000407100813D41169071D6262FD79
:10082000B7430004080FD812D42BEB672251229251
:100830009100040919D910D4294A8412A14428111D
:100840004A48124948A2FF97888802040A1DD81214
:10085000D490C82432894C2293C824B28B4A448550
:1008600022A1482892888402040B19D910D4380494
:10087000E55A8413994826928964229948269289D8
:1008800004040C160813D4D5266493C824224D35CD
:10089000916E1299444814040D120813D4922B0936
:1008A000792B590E13538DC828040E130813D41135
:1008B000C9E830211F2567CD44890500040F0EF8D3
:1008C000D2D310F27F3CCCC43200041010D812D422
:1008D00093D2445A848C87228F02041111D812D4E7
:1008E000B8887536C924426E121300041217D81244
:1008F000D4A889D42432894C2212996412213789D0
:10090000090004130BD812D4388CF53F03041410DB
:10091000F8D2D3A34944FAFFBF1C86440104150E44
:10092000D812D4388C753689753E0404161AD8123C
:10093000D4904828128A8422A1A8D86816158A84DF
:1009400022A148280A041715D812D4A2892442A249
:10095000582A9CCB894489484602041811D812D4DD
:1009600010F256B21C26A61A91510004191408134D
:10097000D411C9E830216F25CB6162AA1119050491
:100980001A15D812D410B249641291A69A48378920
:100990004C22240A041B1AD812D42BA9C824328949
:1009A0004C2293C82432894C2293C86A4401041C07
:1009B00015D812D410124BA6834542915024140925
:1009C00091A300041D0DD812D410F2F150E4A3003D
:1009D000041E10D812D4A2892442FE512292910002
:1009E000041F0BD812D4380CF93F0A042010D81277
:1009F000D430C92442DE2426B1CE00042111D812FD
:100A0000D4A2892442B27E948864240004220CD8A3
:100A100012D438C4C4FADF0004230FD812D410F261
:100A20005172D64C945800042419D812D4135A5435
:100A300028128A8422A14828128A84A26214CB0038
:100A4000042514D812D4101225226D44AA944813F8
:100A50006911120504261EF9D2D3104A8412A1444A
:100A600028114A8412A14428114A8412A144283929
:100A7000C81504270CD812D410F2A3E4AC0704283C
:100A80001DD812D4904828128A8422A14828128A9C
:100A90008422A14828128A8422390C04290FF9D211
:100AA000D390E8FFFFFF7F39C815042A10D812D46D
:100AB0002046C49A6B22FD4F1500042B16D812D481
:100AC00010F268A24828128A8422A14828129300B2
:100AD000042C10D812D410EB6C924984BC494C0001
:100AE000042D13D812D4A2892442B196B3325122D4
:100AF000929100042E1CD812D4104D5428128A84CE
:100B000022A1482E14094542915024140969020477
:100B10002F14D812D4B2C8881C2532914945269189
:100B200011890204300F8812D42AC9C492839051CB
:100B30005209043113C812D40E95C4F2D24822E4EB
:100B40002811C948000432108812D430C92432C98F
:100B500045C878900004330B8812D4388CF51900FE
:100B600004340FA8D2D3A34944FA2F87215100049B
:100B700035108812D4A28924C243592E135500047B
:100B800036128812D4904828128A8AC9A2429150FB
:100B90001404370F8812D4B108C5A2B29C28B10042
:100BA00004380E8812D410B2952C12538D280439B3
:100BB00012B812D411C9E830215BC92231D588029C
:100BC000043A118812D410D2242251AD265293082F
:100BD00005043B128812D42BA9C82432894C2293D5
:100BE000C88802043C118812D410960E160945429A
:100BF00091108902043D0C8812D410321E8A1C0503
:100C0000043E0F8812D4A28924428E12918C0404CF
:100C10003F0B8812D4380CF95100044012C892D30B
:100C2000908C461221C7924432126B0604410E8802
:100C300012D42AC9C8DA65A20A0004420B8812D469
:100C400038C4C4FA06044312C892D310F251225A8F
:100C500011132522190900044417E892D3130B2D10
:100C60002A140945429150241415A3581B00044529
:100C7000118812D4104A4432AA584A1349840204F3
:100C80004615A8D2D390496412994426914964121A
:100C900099E4105604470B8812D41072949C3504C2
:100CA00048148812D4904828128A8422A148281215
:100CB0008AE43004490DA9D2D390E8FFFF72902B4B
:100CC000044A128812D4984E4F32894C2293C82479
:100CD0001600044B128812D410124D14094542918B
:100CE00050242601044C0E8812D4102B5F848C07EC
:100CF0000900044D0E8812D4B108C56A65A2C40269
:100D0000044E148812D4104D5428920B4542915031
:100D100024A40900044F0F8812D439081925271577
:100D2000195100045013C812D492AB43692289F0C0
:100D30005096CB441500045113B812D4116907D250
:100D40004412E1A12C97892A0004521B1893D31155
:100D50004B6D6215D9442493C82432894C2293C820
:100D6000C4AA4A0004530DC812D494AA430F637D49
:100D70000604540E8812D4B108C935B1A2C40204C5
:100D8000550E8812D4B108E9763151620104560D2E
:100D9000B812D413CBA1647D3B0404570EC812D4FF
:100DA00011698791F5DB210004580FF794D355871B
:100DB00051F595C626A9000459128910D4294A84F0
:100DC00012A18424D12F240A00045A138812D4902B
:100DD000C8243289ECA2429150242C00045B17D91C
:100DE00010D4912B57E592D9485122940825428975
:100DF000502214045C12C812D494AA4365254DB540
:100E00009A484D2214045D11C812D492ABC3846C6D
:100E1000258BC454230A045E15F892D311C9E83017
:100E2000211F25A215315122929100045F0DA8D2F5
:100E3000D310F2E361269601046018D812D4114948
:100E400084BC4828128A8422A14828128A260900D4
:100E50000461118812D4107291502414C961229235
:100E600000046219E812D4114B6B93A0585C13A9CB
:100E700049641299442611894A00046314B812D4B3
:100E8000898BA536B149269149641299C40204643C
:100E90001CD812D4104D5428128A4C2293C82E6AA2
:100EA00012994426915024A409000465138812D491
:100EB000104D5428B28B9A44269190260004661750
:100EC000D812D493D2445A84C4D2C122A148281241
:100ED0008A84A2000467118812D493D24492D1C1AB
:100EE00022A148280A04681DD712D488854293504D
:100EF00024453289496207498A244592224991A4AE
:100F000048320469137732D488854293502472881A
:100F1000A448522419046A17D812D4380C891291A3
:100F20008C2AA5595428128A8422A128046B10887F
:100F300012D438444432AA946651A128046C1BD7B9
:100F400012D4885862929844329A944293882545E4
:100F500092224991A44832046D117732D4885862A4
:100F6000A248A4149A649164046E1828D3D311C9BA
:100F7000A872304D241112A5C2B9B2AAA824160332
:100F8000046F15E8D2D311C9A872A8454894CAC500
:100F90002A16B11800047016D812D4904828128A64
:100FA0008422A148282A36AA583700047117C8D2CB
:100FB000D313CB24128A8422A14828128A8A8D2A2C
:100FC0009601047212D812D4A28924428E87224735
:100FD000894846020473118812D4A28924C243911D
:100FE0002811C94800047412D812D410D2243289AE
:100FF00048BF1159C58A0004750F8812D410D22435
:10100000226D44AA5808047616F812D410C9447206
:10101000909026914944FA8DC82A1602047714B894
:1010200012D410C9447290902611692352C542000F
:1010300004781E0AB1D3194BA412A9442A914AF884
:101040004512A1482CA28A483493AB43640004792A
:1010500017BAB0D39948F822895024165145249ADA
:10106000C9D5213200047A11F8F2D393D22C2A4444
:10107000FEA262A3CA00047B10A8F2D393D22C2A4A
:101080004416151B5506047C1AF812D4B108E52045
:1010900015211709454291502414094542D12401D4
:1010A000047D18B812D4B108E510214542915024AE
:1010B0001409457298882400047E1BF812D43888DD
:1010C0004471908A908B8422A14828128A8422A19C
:1010D000689200047F19B812D4388844718890222D
:1010E000A14828128A8422394C441200048011F845
:1010F000D2D3A2892442B27E97D3C5120004810FB5
:10110000A8D2D32AC9C8DAE573B10800048214C88A
:1011100012D496CA24C2F15042118E871299540CEF
:1011200004830936B2D53C0C0104840A37B0D522B9
:1011300089680204850935B2D590DD00048608353A
:10114000B2D5BB0904870B38B2D5194A46B201049F
:1011500088194A91D34D8AC422D138241DFFFF1427
:1011600087A42645629120000489174A91D34D0A2D
:10117000CA4411B11CFFFF22968464C250340A0491
:101180008A2339B3D31109E950A14428114A8412A2
:10119000D9444491B4484892994428114A8473B17F
:1011A0001200048B1AE9B2D31109E950A144289125
:1011B0004D44142D24C94C229C8B9500048C17D9C6
:1011C00010D4918BC972B94D4928114A8412A14497
:1011D000263201048D118910D41193E527A14428EA
:1011E000114A2E00048E12D812D430C924422E1275
:1011F000D2E422246B06048F14C892D3908C46123A
:101200002117496522A108C9CA0004900CE812D42C
:10121000161FCAFACF0004910BA812D4161FCAFADF
:101220000C04920DD812D4328975348AF5080493CF
:101230000D8812D43289156F624500049412F8D2D9
:10124000D3388C7536C924421EC552090004951244
:10125000A8D2D3388C954D32894C22134B450004CB
:101260009612F9D2D390E8FF93916892E8FF65AEA9
:101270000004970FA9D2D390E84F369344BFCC1502
:1012800004981808B3D3A2892442A2582A9CCB8977
:1012900044894846154B8500049912B8B2D3B10869
:1012A000C5A2BA9828318AA54200049A1BF9D2D364
:1012B000904684129948265213C98A229948A62436
:1012C00013098B7305049B12A9D2D310866422B52F
:1012D0006251245312CE15049C1CD812D410D2246F
:1012E000328924A2125189484C92884A4425A22668
:1012F000111205049D128812D41052429488E445BC
:101300001251091105049E1AD910D49146841791DF
:101310004CA42692154532914C4926124A84020467
:101320009F15D910D4912B57E532919A44482D8AB4
:10133000644A420104A01BD910D4984684129948EB
:10134000265213C98A229948A6241309254201046A
:10135000A1118910D4184A6422B562512453120A8B
:1013600004A21EF9D2D3104A8412A14428114A843F
:1013700092434428114A8412A1442811CE1504A393
:1013800015A9D2D3104A8412A1E410114A8412A1E3
:1013900044385704A41DDA10D4101D424291502441
:1013A00014094542A34828128A8422A1482812021F
:1013B00004A5148812D4905C6412594D2293C82459
:1013C00032890C0004A620F9D0D3B0896422994850
:1013D00026928964228A48429290242409494292A2
:1013E000C8C5120004A716A8D2D3A84964129984CC
:1013F000A2429150241465A9040004A814E9F0D372
:10140000228AE5BA894414258A8849D10E1104A993
:1014100012A8D2D3A249C5A2890A458522AACA0721
:1014200004AA1308B3D3A2892442B27E94886454D8
:10143000B15C0404AB10B8B2D32AC9C8DA65A2A261
:10144000582E0204AC0EF8D2D338C4C4FACF6325A8
:101450000004AD0DA8D2D338C4C47A1E2B0104AE4B
:1014600010D812D4101225226D44AA58DF0004AF00
:101470000FB8B2D3101225221955AC6F0004B01268
:10148000D812D4101225226D44AAD028D60D0004FB
:10149000B111B8B2D3101225221955AC6814AB01A2
:1014A00004B217F9D2D3104A84223591904A1653C8
:1014B00089229948B1385704B310A9D2D3108A149D
:1014C000C9723151A4385704B411FAD0D3B0C8F45A
:1014D000FFFFED1087C8210204B510AAD0D3B0C811
:1014E000F47F3BC42172880004B617F9D2D3104AA6
:1014F0008412A14428114A8412A1E8AE7D3C57040D
:10150000B711A9D2D3104A8412A14428BAABCF157F
:1015100004B812D812D410F2254409496E21594852
:10152000AC0104B9118812D410B2842821C92D2429
:101530000B890504BA0DD812D410EB7C11F2A3006C
:1015400004BB0ED712D490EA453451E39B0004BC8F
:1015500016D910D49C4A64B2896C22931C4272DD65
:1015600054A4230004BD148910D4A484441399E422
:101570001092CB212221050004BE1909B1D39C4A47
:1015800064B2896C22931C4272DD54A47395B0043A
:101590000004BF17B9B0D3A484441399E41092CBCC
:1015A000212221592E094B0004C00DD812D438C471
:1015B000C4FA6F870004C11CF812D411C9E830893D
:1015C0008422A148282A369A458522A14828128AD1
:1015D0000204C216B812D411C9E830898422A1A825
:1015E000982C2A1409450104C316F8D2D3900E6929
:1015F000129944A4C92493087994CA480004C412D7
:10160000A8D2D310D2242251ED2264148B2A0004D4
:10161000C51E09B3D3AB89D44432914C2413C944B9
:1016200032914C2413C9243389702E560204C616F5
:10163000B9B2D3AB89D44432914C2413C924C2B972
:1016400058090004C70FF8D2D310F2F150E4A358A0
:10165000540104C80FA8D2D310321E8A1CC5A20A96
:101660000004C92009B3D3104A8412A14428114AA6
:101670008492434428114A8412A1442811CEC54AB9
:101680000004CA17B9B2D3104A8412A1E410114A57
:101690008412A14438172B0104CB0FF8D2D310F2D7
:1016A000A3E4ACEB542C0104CC0FA8D2D310729459
:1016B0009C55A762090004CD1A09B3D3104A84923D
:1016C000D164343944F4FF28114A8412E15CAC043B
:1016D00004CE13B9B2D3104A46934344FF51229C1F
:1016E0008B950004CF0BD416D4A088F45F0804D0E7
:1016F00013F812D411C9E860294DA445483C147967
:101700001404D113B812D411C9E8D0924C2C390862
:101710001925950004D213F812D41169874A692259
:101720002D42E2A1C8A30004D312B812D4116987D4
:10173000598462C941C828A90404D412D812D42BF0
:10174000D124328948A7C348FF890004D5158812DF
:10175000D499484212994446A24964125144320134
:1017600004D612F812D411C9E8B0C358B349ACF387
:10177000210004D714B812D411C9E8509A48223C69
:1017800094E53251050004D813D812D4A28924421A
:10179000B1F2A1C8281169230104D9108812D429F3
:1017A000C9E4E243512292910004DA16F812D411EE
:1017B0006907D24412A1587C28324A44DA4800040E
:1017C000DB13B812D4116987956472F1A12811C98D
:1017D000480004DC1BF812D4116907492414094598
:1017E0004251B1D12C2A1409454291501404DD15FF
:1017F000B812D41169074924140945C56451A14898
:10180000280A04DE17F812D4116907D244122151B4
:101810002A9CCB89448948460204DF12B812D411AD
:10182000698759846219754E94580004E014D812DF
:10183000D43884A562A990AE4C244A4432120004E4
:10184000E114D892D33884A562A990AE4C244A44BE
:1018500032120004E213F812D438C42142DE4A9650
:10186000C3C45423320A04E311A812D438C4214259
:10187000B6924562AA110504E413F812D41169075F
:1018800009B9952C8789A946641404E511B812D4C6
:1018900011690709D94A1689A9461404E613F812F2
:1018A000D4116907D24412217F948864240004E78C
:1018B00012B812D4116907D244122147894846024E
:1018C00004E812D812D4A28924428E87224789487C
:1018D000460204E9118812D4A28924C24391281136
:1018E000C9480004EA15F812D4116907D24412213C
:1018F000E3A1C8512292910004EB14B812D41169EB
:1019000007D24412E1A148948864240004EC16F83C
:1019100012D4116907D24412A158E5AC4C948864E2
:10192000240004ED12B812D41169875984629159C8
:101930004C94580004EE12F812D438C421423E4AA6
:10194000CE9A89120B0004EF14E892D338C42142D6
:101950003E4A442B62A24424230104F01208F3D32C
:1019600011690709F928396B264A2C0004F114F88B
:1019700092D311690709F92811AD888912918C0455
:1019800004F2130813D45211C941423E4ACE9A8937
:10199000120B0004F315F892D35211C941423E4A8A
:1019A000442B62A24424230104F40FF812D41169D9
:1019B0000709F92839EB0104F50EB812D4116907AB
:1019C00009394ACE1A04F60DF8D2D3388CF59FC7E0
:1019D000AA0004F70CA8D2D3388CF53C560504F8BD
:1019E00017F812D4116907097934512414094542B2
:1019F000915024260104F915B812D41169070989F8
:101A0000268A8422A1482812930004FA0EF9D0D322
:101A1000B3C975B5CAF5910A04FB0EA9D0D3B3C9F1
:101A2000558F728D540004FC17F8D2D31012252262
:101A30006D44AA944813691112C5A20A0004FD144A
:101A4000A8D2D3104A4432AA584A13498462510595
:101A50000004FE15D812D4101225226D44D2214460
:101A6000A489B408890204FF128812D4104A4432AF
:101A7000AAEC10A28924420105000FD812D4D6C9BD
:101A80002223F22891890C05010FD812D4D6D34411
:101A9000A9C851225A11050217D910D4946B254AAE
:101AA000642209494292902424894E1600050317A6
:101AB000D910D494EB1A11D64412928424214924CB
:101AC00015916402050418D910D4994A8422B9B238
:101AD00074A624940825428950229D000505128988
:101AE00010D4218AE4D239445122944827000506B3
:101AF0001709B1D3228A142542B9583A87C82172EE
:101B0000ED73B11200050712B9B0D33109E5B2BACD
:101B10001C2297CFC54A00050817D910D4294A843A
:101B200012A14428114A8412FDBF546E1300050906
:101B3000108910D4294A8412A144FF853601050A70
:101B40001DD812D490C82432894C2293C824B20ADA
:101B50004542915024140945429A00050B148812FD
:101B6000D490C8243289AC429150241409690205EA
:101B70000C12D812D4A2892442B22623478948469F
:101B800002050D118812D4A2892442B2C82811C9B5
:101B90004800050E16D812D438C4C47A914964128C
:101BA0009944269149841300050F128812D438C431
:101BB000C42A32894C2293082700051015D812D464
:101BC000A289244276F9502A161225221909000505
:101BD000110F8812D4B108E935A95828B1000512AF
:101BE0001CF8D2D32BA9C82432894C2293C82432A2
:101BF000894C2293C86A44B1A802051315A8D2D310
:101C00002BA9C82432894C2293C88862510500054B
:101C10001412D910D4B0E8FF9F4612FD978A84248D
:101C2000110515128910D4B0E84F23D14822A948D4
:101C3000481201051617D912D4A05144240949426B
:101C400092902812124922E55500051717C992D320
:101C500090882A12928444115144928A8422A26B61
:101C600007051812D812D4B228E96F12A1454D22E7
:101C7000D213010519138812D4B1A8502487094D35
:101C8000229348481300051A12E8F2D3A28924428D
:101C9000FE22215144B2BA00051B0FC892D39A28E4
:101CA00015394A442B621D051C13D812D410F24575
:101CB000429150241449C954240A051D118812D494
:101CC000107291502414C961229200051E18D81276
:101CD000D410922234894C22928C4435916E129900
:101CE000444814051F128812D410456812D1A46408
:101CF00013A949840205201BF9D0D39B12254289E0
:101D000050229408252489FE4B454292C86515004F
:101D1000052113A9D0D39B1225420949A25F48127D
:101D2000B9AC0205221EF8D2D390C82432894C22C5
:101D300093C824B28B0A4542915024140945595442
:101D400001052316A8D2D390C8243289ECA242916F
:101D5000502414655105000000007D2911241FBE88
:101D6000CFEFDAE0DEBFCDBF84B714BE0FB6F89474
:101D7000A895809160008861809360001092600057
:101D80000FBE12E0A0E0B1E0ECE3FFE502C0059079
:101D90000D92A630B107D9F729E0A6E0B2E001C064
:101DA0001D92A035B207E1F71EE0CEEADEE004C0E6
:101DB0002197FE010E945B2FCD3AD107C9F70E94FF
:101DC000802A0C949C2F0C940000662329F06A3022
:101DD00019F0862F90E008958FEF9FEF0895AF924E
:101DE000BF92CF92DF92EF92FF920F93CF93DF9348
:101DF000EC01DA017901942F9770E1E0F0E09F01A6
:101E0000092E01C0220F0A94EAF7522F6E018AE8C8
:101E1000C80ED11CF601808140E0823018F4422FB8
:101E2000813049F15D01F8EFAF22E8ADF9AD2881CD
:101E30003981D90150968C918A9D90018B9D300DEE
:101E40001124620F731FDF01A60FB71F01111AC003
:101E5000EA0EFB1E8C91842B85278D93AE15BF0552
:101E6000C9F7DF91CF910F91FF90EF90DF90CF9066
:101E7000BF90AF90089550E0D5CF440F550FE114B7
:101E8000F10479F33C91342B35273C939F5F977095
:101E9000E1E0EE1AF1089111F0CF2CAD3DADA20FAB
:101EA000B31FF6018081823028F4813009F051E0BF
:101EB00041E0E5CF51E0E3CF80E0089590E080E09D
:101EC0000895EDE3F7E0DC012D913D914C912193D4
:101ED00031934193B7E0ED3CFB07A9F7089581E00A
:101EE000809348090895FC0180913C07882311F1F3
:101EF0003FB7F89482E08093E9002091F200822FAE
:101F000090E01816190614F481E090E0882339F067
:101F1000289844E640933B074091F10040832223F8
:101F200039F02091F200211103C02BE62093E80044
:101F30003FBF08958FEF9FEF08959B01DC01189636
:101F4000ED91FC9141E067E109942FB7F89483E0AB
:101F50008093E9009091E800892F807295FF04C07A
:101F60009091F20080E4891B2FBF08958091330780
:101F700081110DC082E080932F0784E080933007A9
:101F8000109232071092310781E0809333078FE27D
:101F900097E0089581508F3008F047C0E82FF0E0B7
:101FA000EC52F04F0C945B2FF10FF50FE30FE90F9C
:101FB000ED0F151015101510F80FFE0F021006107A
:101FC0000C1015101010809180008F778093800086
:101FD0000895809180008F7DF9CF80918000877F68
:101FE000F5CF84B58F7784BD089584B58F7DFBCF01
:101FF000809190008F778093900008958091900059
:102000008F7DF9CF80919000877FF5CF8091C000C0
:102010008F778093C00008958091C0008F7DF9CFA5
:102020008091C200877F8093C20008951F93CF9351
:10203000DF93282F30E0F901E950FE4F8491F90138
:10204000E852FE4FD491F901E754FE4FC491CC23DE
:10205000A9F0162F81110E94CA0FEC2FF0E0EE0FAD
:10206000FF1FE555FE4FA591B4918FB7F894EC9101
:10207000111108C0D095DE23DC938FBFDF91CF9183
:102080001F910895DE2BF8CFCF93DF9390E0FC01F2
:10209000E852FE4F249187549E4FFC01849188237F
:1020A000D1F090E0880F991FFC01E356FE4FA591F7
:1020B000B491FC01E555FE4FC591D491623071F4A5
:1020C0009FB7F8943C91822F809583238C93E8816D
:1020D0002E2B28839FBFDF91CF9108958FB7F8945F
:1020E000EC912E2B2C938FBFF6CF3FB7F8948091B5
:1020F0002B0790912C07A0912D07B0912E0726B5A4
:10210000A89B05C02F3F19F00196A11DB11D3FBF2F
:10211000BA2FA92F982F8827BC01CD01620F711DFE
:10212000811D911D42E0660F771F881F991F4A95F8
:10213000D1F708958F929F92AF92BF92CF92DF9284
:10214000EF92FF926B017C010E9475104B015C01C4
:10215000C114D104E104F104B9F00E9475106819AA
:1021600079098A099B09683E73408105910580F3CE
:1021700021E0C21AD108E108F10888EE880E83E058
:10218000981EA11CB11CE4CFFF90EF90DF90CF9080
:10219000BF90AF909F908F9008952FB7F894609163
:1021A0002707709128078091290790912A072FBF50
:1021B000089580E991E008954091C3045091C404CA
:1021C0002091C1043091C20442175307B4F4909196
:1021D000E8009570E1F39091E80092FD19C08093BA
:1021E000F1008091C3049091C40401968F739927E4
:1021F000892B19F48EEF8093E8008091C3049091AD
:10220000C40401969093C4048093C30481E00895AC
:1022100080E00895DF92EF92FF920F931F93CF9388
:10222000DF93D82E8A01EB017B01E40EF51ECE155B
:10223000DF0559F0D7FE12C0FE0184910E94DC1028
:1022400021968111F4CF0FEF1FEFC801DF91CF91DD
:102250001F910F91FF90EF90DF9008958881EECF4E
:102260000F931F93CF93DF931F92CDB7DEB782E01A
:10227000898342E450E06AEE70E080E80E940A112F
:102280000E94B60FDC0112960D911C9101151105EB
:1022900089F0D801ED91FC910280F381E02DBE011F
:1022A0006F5F7F4FC801099597FD04C0F801008555
:1022B0001185ECCF89810F90DF91CF911F910F9104
:1022C0000895615030F02091F100FC0120830196C7
:1022D000F8CF289884E680933B0708958F929F92C9
:1022E000AF92BF92CF92DF92EF92FF920F931F9324
:1022F000CF93DF936C017B018A0180910B018823CE
:1023000009F45CC080913C07882309F457C0809190
:10231000C70480FF05C08091E00082608093E000E8
:10232000E801B12C8AEFA82E93E0892E2AE3922EA1
:10233000209711F4BB20D9F10E94A50F81110AC08A
:10234000AA94AA20D9F161E070E080E090E00E94B8
:102350009A10EECF8C171D0611F00CF08C2F9FB742
:10236000F8948092E9002091E80025FD02C09FBF0B
:10237000DFCF282F30E0C21BD30BF701815020F0B4
:1023800041914093F100FACFE20EF31EBB2021F001
:102390009092E800B12CEBCF8091E80085FDE7CF6B
:1023A0009092E800BB24B394209709F3F3CF5D9893
:1023B00084E68093C604101611063CF081E090E09C
:1023C000F6019383828310E000E0C801DF91CF9192
:1023D0001F910F91FF90EF90DF90CF90BF90AF9043
:1023E0009F908F900895CF93DF931F92CDB7DEB764
:1023F0006983DC01ED91FC910280F381E02D41E0E5
:1024000050E0BE016F5F7F4F09950F90DF91CF9134
:1024100008950F931F93CF93DF938C01D0E0C0E01A
:10242000F801EC0FFD1F6491662341F08DEC97E0FD
:102430000E94F311892B11F02196F2CFCE01DF918A
:10244000CF911F910F91089583E08093E9008091CF
:10245000F200882319F08AE38093E80008950E942F
:10246000A50F90E00895CF93DF931F92CDB7DEB70D
:10247000FC018485958597FD08C02FEF3FEF3587D8
:1024800024870F90DF91CF910895CE0101960E948D
:10249000730F019719F4898190E0F3CF8FEF9FEFCD
:1024A000F0CF0F931F93CF93DF931F92CDB7DEB77B
:1024B0008C01FC018485958597FF0BC0CE010196A8
:1024C0000E94730F019771F4898190E0F80195875C
:1024D0008487F801848595850F90DF91CF911F91B6
:1024E0000F9108958FEF9FEFF1CFFC0184859585C3
:1024F00097FD0BC09FB7F89482E08093E90080912C
:10250000F2009FBF90E0019608959FB7F89482E093
:102510008093E9008091F2009FBF90E00895DC0174
:102520001A96ED91FC9130E020E00994DC011696BA
:10253000ED91FC9130E020E040E069E10994DC019C
:102540001696ED91FC9130E020E040E068E10994BE
:102550009A01DC011696ED91FC91462F67E10994F2
:10256000EF92FF920F931F93CF93DF931F92CDB7FC
:10257000DEB77C018B01D8016C91673129F150F4F1
:102580006531A0F40F90DF91CF911F910F91FF90D3
:10259000EF9008956A3118F16E3FA1F7F80141817B
:1025A000498369E2C7010E948F120BC0F801418183
:1025B0004983D7011696ED91FC9130E020E0C701E8
:1025C00009950E5F1F4FD7CFF80181818983AE0136
:1025D0004F5F5F4F61E0C7010E94A812F2CF0F5F0B
:1025E0001F4FD7011696ED91FC9130E020E040E0BE
:1025F000C7010995C0CF462FDC011696ED91FC91DD
:1026000030E020E066E10994462FDC011696ED915A
:10261000FC9130E020E065E10994EF92FF920F9386
:102620001F93CF93DF93EC01042F79016D3009F4F0
:1026300046C050F46B30C9F1693009F49FC06A306C
:1026400009F465C080E05CC06E3009F44BC06F30A7
:1026500099F70E949F12F7011381110F110F110FAB
:102660006C89160F60E4CE010E940413612F6295FD
:102670006F706061CE010E940413612F6F70CE01F4
:102680000E94FB12F7016481606BCE010E94FB1275
:10269000F701408151816281660F660F660FCE019E
:1026A0000E94A8120150A1F727C061E271E0442303
:1026B00011F06CE171E0CE010E94B01220C0411116
:1026C00009C065E171E00E94B012E881F981828958
:1026D0008C8B15C06EE071E00E94B012E881F98128
:1026E0008389F6CF0E949F1261E8CE010E940413F5
:1026F000602FCE010E94FB12CE010E94961281E053
:10270000DF91CF911F910F91FF90EF900895EA858F
:10271000FB8530E020E040E068E2CE010995EE81E3
:10272000FF8130E020E040E064E1CE01099541E026
:102730006BE4CE010E948F12E881F981448169E245
:10274000CE010E948F1240E06BE4CE010E948F12F6
:10275000E881F981448169E2CE010E948F1241E053
:102760006BE4CE010E948F12E881F981458169E214
:10277000CE010E948F1266E271E09DCF8BE591E061
:102780009983888382E0A4CFDC011896ED91FC91B7
:1027900030E020E040E069E10994DC011896ED9119
:1027A000FC9130E020E040E068E10994CF93DF93B2
:1027B0001F92CDB7DEB76983BE016F5F7F4F0E9466
:1027C0009D0F0F90DF91CF910895EF92FF921F938D
:1027D000CF93DF93EC01162F7A010E94CD1360E4B2
:1027E000CE010E94D613E885F9859701412F67E154
:1027F000CE010995CE01DF91CF911F91FF90EF900F
:102800000C94C413EF92FF921F93CF93DF93EC01CC
:10281000142F7901663181F138F4643109F44BC029
:10282000653179F080E022C06831C9F150F1693139
:10283000C9F78091C004882391F1CE010E94C4138E
:102840002EC08091C004882319F0CE010E94C413C9
:10285000CE010E94CD1360E0CE010E94D613612FFD
:10286000CE010E94D61381E08093C004DF91CF9106
:102870001F91FF90EF900895642F0E94D61381E07E
:10288000F5CF8091C004882319F0CE010E94C413B3
:10289000A701193138F4612FCE010E94E51310927F
:1028A000C004EDCF68E1CE010E94E513185188E124
:1028B000E80EF11CEDCF8E898F3F11F488E78E8BE7
:1028C000E885F9859701412F64E1CE01DF91CF9131
:1028D0001F91FF90EF900994FC016623D9F16A30B3
:1028E000C9F1808D811125C06C3F48F085E0808F53
:1028F000617070E0738B628B2EEF3FEF29C0683FF1
:1029000020F084E0808F6370F4CF603F20F083E09C
:10291000808F6770EECF603E20F082E0808F6F7016
:10292000E8CF262F30E0603C98F081E0808F6F7117
:10293000E0CF8150808F2289338996E0220F331FA8
:102940009A95E1F76F73262B338B228B8111D4CFAD
:10295000C90108952FEF3FEFFBCF0F93FC01E05C1F
:10296000FF4F0190F081E02D4E1B5F0BDC01D496F0
:10297000ED91FC9109950F910895CF93DF93FC01A0
:10298000A081B18182AD90E09C0143E0220F331F12
:102990004A95E1F737AF26AF50962C91509748E013
:1029A000249F9001112435AF24AF23AD30E0B9014D
:1029B00053E0660F771F5A95E1F7EF01C05CDF4FD8
:1029C0007983688351964C915197E901C80FD91FBB
:1029D00050E04C175D0718F4CA01821B930BEF01FE
:1029E000CE5BDF4F79836883229623E0880F991F9F
:1029F0002A95E1F7860F971F99838883229654962C
:102A00008D919C91559799838883E85BFF4F5696EB
:102A10008D919C9191838083DF91CF9108950F9345
:102A20001F93FC01E25BFF4F0190F081E02DDC0180
:102A3000A05BBF4F0D90BC91A02D4A175B0740F4DF
:102A4000E017F10748F00417150730F080E019C0CF
:102A5000E017F107C0F3FACFFC01E65BFF4F4081BE
:102A60005181845B9F4FFC018081918168177907B8
:102A700058F481E04217530720F081E0261737070A
:102A800028F71F910F91089542175307B0F3DECF37
:102A90002F923F924F925F926F927F928F929F926E
:102AA000AF92BF92CF92DF92EF92FF920F931F935C
:102AB000CF93DF93CDB7DEB72A970FB6F894DEBF7A
:102AC0000FBECDBF9A878987865B9F4F9A83898384
:102AD000FC0111821082E985FA85EA5BFF4F408094
:102AE000518029853A85245B3F4F3C832B83F90134
:102AF00051824082E985FA85EE5BFF4F208031806C
:102B000029853A85225B3F4F3E832D83F90131822F
:102B10002082E985FA85EC5BFF4F60807180298512
:102B20003A85205B3F4F38872F83F901718260829D
:102B3000E985FA85E85AFF4FE080F180E985FA855A
:102B4000EC5AFF4FA080B180E985FA85EA5AFF4F21
:102B5000C080D180E985FA85EE5AFF4F8080918050
:102B600087019501A601B40189859A850E940F15F8
:102B700029853A852C573F4F3A87298781111BC0F9
:102B8000F90110822A960FB6F894DEBF0FBECDBFB2
:102B9000DF91CF911F910F91FF90EF90DF90CF9039
:102BA000BF90AF909F908F907F906F905F904F906D
:102BB0003F902F90089581E0E985FA858083811404
:102BC000910421F0E981FA8191828082A414B504F4
:102BD00020F4EB81FC81B182A0822C143D0420F40E
:102BE000ED81FE81D182C082E614F70458F6EF81B0
:102BF000F885F182E082C6CF0F93CF93DF93E02F69
:102C0000DC01AC57BF4FFC91FF2309F460C02115D4
:102C1000310509F45CC02230310538F0023009F08A
:102C20004AC06F5F7F4F621B730B0E2F0170E0FD78
:102C300052C0FC01E25BFF4F0190F081E02D4E1786
:102C40005F0708F444C0FC01E05BFF4F0190F08196
:102C5000E02D4E175F07D8F5FC01E45BFF4F0190B4
:102C6000F081E02DDC01A65BBF4F0D90BC91A02D43
:102C7000260F371F2617370738F56E177F0718F509
:102C80009F0121503109A217B30708F56A177B0786
:102C900008F4BD012E173F0708F4F901E61BF70BF6
:102CA000EC01AEA9BFA914960D90BC91A02D9F0177
:102CB000FD0109950CC0033009F0B7CF4F5F5F4F9E
:102CC000421B530BB2CFBD016E177F07E0F2DF91BD
:102CD000CF910F910895FC01E65BFF4F0190F081C9
:102CE000E02D6E177F0798F3FC01E45BFF4F019026
:102CF000F081E02D6E177F0750F7FC01E05BFF4F7E
:102D00000190F081E02DDC01A25BBF4F0D90BC91E2
:102D1000A02D240F351F24173507A8F44E175F0781
:102D200088F49F0121503109A217B30780F64A1792
:102D30005B0708F4AD012E173F0708F4F901E41B07
:102D4000F50BAECFAD014E175F0708F6EDCF213082
:102D500069F038F0223079F0840F911D47FD9A9583
:102D60000895860F911D67FD9A950895841B91091A
:102D700047FD93950895861B910967FD93950895E6
:102D8000213069F038F0223079F0861B910967FD17
:102D900093950895840F911D47FD9A950895860F88
:102DA000911D67FD9A950895841B910947FD9395A0
:102DB00008953F924F925F926F927F928F929F926F
:102DC000AF92BF92CF92DF92EF92FF920F931F9339
:102DD000CF93DF937C01162F442EEC01C25ADF4FB4
:102DE0005E806F806C018AE8C80ED11C78847518EB
:102DF000312E711608F4372C8C809D800E85202F83
:102E0000462D652D8A819B810E94A7165C01202F8B
:102E1000462D652DC4010E94C016AC01442079F0F6
:102E20008C85F6018083232D30E0B501C7010E9417
:102E3000FC15171548F017196394512CD7CF8B85C3
:102E40008111F7CF8D85EDCF150D1E836F82DF9138
:102E5000CF911F910F91FF90EF90DF90CF90BF9097
:102E6000AF909F908F907F906F905F904F903F902A
:102E70000895DC011A964C911A97ED91FC911197E7
:102E8000249130E0042E02C0359527950A94E2F78C
:102E9000842F860F883068F031961196FC93EE935C
:102EA000E49198E0941B01C0EE0F9A95EAF72E2B5F
:102EB00088501A968C938FEF9FEF01C0880F6A9508
:102EC000EAF78095822308950F931F93CF93DF93A2
:102ED0008C01EC01C25ADF4F798368831A86FC01AA
:102EE000EF58FF4F6081CE010E9439178887F801A3
:102EF000EE58FF4F6081CE010E9439178987F80193
:102F0000E657FF4F90819C8781E0911180E08D878B
:102F1000DF91CF911F910F910895CF93C62F0E94FB
:102F20003917C15021E030E001C0220FCA95EAF7FD
:102F3000821BCF910895FC01E60FF11D849190E072
:102F4000982F88273196E4918E0F911D0895EF9266
:102F5000FF920F931F93CF93DF93FC01E65AFF4F2D
:102F600020813181295E3F4F6F3F710509F048F59F
:102F700061367105D8F080589F4FFC0180819181A6
:102F8000280F391FC9010196FC014491442309F41B
:102F900047C0F90144914617170671F40196DF9175
:102FA000CF911F910F91FF90EF90089561347105BB
:102FB00048F382589F4FE1CFFC018491280F311DC7
:102FC000E1CF8B01FC01EE57FF4FC081D181C20FD1
:102FD000D31F7E0160E0C7010E949B17C80FD91F55
:102FE00062E0C7010E949B17F4E0EF0EF11C80170E
:102FF000910780F3FE01849190E0982F8827319605
:10300000E4918E2B009761F00817190719F4CE018F
:103010000396C5CFFE013296E491CE0FD11DEACFC3
:1030200090E080E0BCCFCF92DF92FF920F931F938E
:10303000CF93DF93109224091092D6086C0180EC94
:10304000F82E10E000E0D0E0C0E0F60161916F01E1
:10305000E091C008F091C1088EEB98E009958F3F90
:10306000980789F18E3F2FEF920779F3BC018EEB21
:1030700098E00E94A717009721F1BC018EEB98E021
:103080000E946417609131098CE199E00E948D17CC
:1030900080934609609132098CE199E00E948D1776
:1030A000609133098CE199E00E948D17082F880FF9
:1030B000110B80ECF81202C0F0904609C00FD11F2E
:1030C000C4CF80E0F3CF20912409222399F080918E
:1030D0004609022E000C330B280F311D87FD3A954F
:1030E000C20FD31FC01BD10B1F1424F4CF0DD11D51
:1030F000F7FCDA95CE01DF91CF911F910F91FF90F0
:10310000DF90CF9008958F929F92AF92BF92CF920F
:10311000DF92EF92FF920F931F93CF93DF93EC0117
:103120007B018A016901FC01E459FF4F80818130F4
:1031300009F46FC008F462C0823009F475C08330AE
:1031400009F47DC0FE01E05AFF4FF182E082329621
:1031500011830083B601CE010E94A717009709F4DE
:10316000FFC07E012EE5E20EF11CBC01CE010E94E3
:103170006417FE01E959FF4FB0803C966081C7019A
:103180000E948D17882EFE01EC58FF4F6081C70109
:103190000E948D17082FFE01EB58FF4F6081C70179
:1031A0000E948D17A82EF701908419140CF090C07E
:1031B00016850B0D0195212F402F682D828193815B
:1031C0000E94A7166C01F70193838283212F402F61
:1031D000682D848195810E94C016AC01F70195830A
:1031E0008483113009F484C0A8F1123009F491C02D
:1031F000133009F4A4C08C01960136C0FE01E45AD4
:10320000FF4F0190F081E02DCE010995080F191FA5
:1032100099CFFE01E45AFF4F0190F081E02DCE01DD
:103220000995E81AF90A8ECFFE01E45AFF4F019082
:10323000F081E02DCE010995081B190B83CFFE010B
:10324000E45AFF4F0190F081E02DCE010995E80E80
:10325000F91E78CF9601290D311D97FC3A958C0106
:103260000B0D111DB7FC1A95B601CE010E940F156A
:10327000882371F1F701168217828E0101591F4FC1
:103280006E01F0E7CF0ED11CF8016081C7010E94EA
:103290003917882EF6016081C7010E943917982ED0
:1032A00040E0682DCE010E94D91641E0692DCE0183
:1032B0000E94D91661E0C7010E9439178111F0CF31
:1032C000F70187818B1504F3C657DF4F8485888308
:1032D0008A2DAA0C990BDF91CF911F910F91FF902E
:1032E000EF90DF90CF90BF90AF909F908F90089518
:1032F00081E090E08B199109B7FC939596012F5FBF
:103300003F4F8A01090D111D97FC1A95C80ED91E51
:10331000ABCF81E090E0BC016919710997FC73950E
:1033200096012F5F3F4F8B199109B7FC93958A0146
:103330000F5F1F4F480F591FC60ED71E95CF96011E
:103340002B0D311DB7FC3A9581E090E08919910968
:1033500097FC93958A010F5F1F4F480F591F84CF29
:1033600090E080E0B8CFCF92DF92EF92FF920F9380
:103370001F93CF93DF938C011092D6087B01D12C41
:10338000C12CD0E0C0E0F70161917F01E091C0085D
:10339000F091C1088EEB98E009958F3F980719F1DD
:1033A0008E3F2FEF920779F39C01A801BE018EEBAF
:1033B00098E00E94831820912A09213059F038F0B2
:1033C000223059F0233061F0C80ED91EDCCFC80F6F
:1033D000D91FFACF080F191FF7CFC81BD90BF4CF8D
:1033E000081B190BF1CFC601DF91CF911F910F91EF
:1033F000FF90EF90DF90CF900895CF93DF93EC0193
:103400006BAFEEA9FFA90190F081E02D0995EEA91F
:10341000FFA90280F381E02DCE01DF91CF910994C5
:10342000AF92BF92CF92DF92EF92FF920F931F93D2
:10343000CF93DF9300D000D01F92CDB7DEB78C01C1
:10344000DC01DA96AC90DA97DB96EC90DB97ED91A5
:10345000FC91B188FE2CD12CC12CD801ED91FC91AE
:1034600011978089D8962D913C911C82FD828B8387
:10347000B8E08B9FC00111248C9DA0018D9D500D43
:103480009C9D500D1124240F351F3A832983D801A8
:103490001496ED91FC919E012F5F3F4F41E06FE04C
:1034A000C8010995F3948F2D8E198A1528F4BFEF62
:1034B000CB1ADB0AFB1488F20F900F900F900F903D
:1034C0000F90DF91CF911F910F91FF90EF90DF90C0
:1034D000CF90BF90AF900895089508950F931F93D4
:1034E000CF93DF93EC01862F642F8C32B8F48A32AD
:1034F000D8F5883239F18932E9F1803408F472C0A4
:10350000982F9F73FE01E90FF11D868D8F3F61F1AA
:10351000903108F045C00E94161026C08D3281F10E
:1035200060F394EB980F923040F78F73C80FD11D62
:103530008E8D411133C00E94161061E08E8D0E9465
:10354000441012C08E01025E1F4FD0E0F80181913D
:103550008F018F3F31F061E0D03108F062E00E94CE
:103560004410DF5FD63191F781E0DF91CF911F9159
:103570000F91089570E090E080E00E949A10F4CFDF
:1035800085E090E0433010F082E090E0880F991FD2
:10359000880F991F05970197F1F7E6CF62E0CFCF2B
:1035A000282F30E0F901E950FE4F8491F901E852EB
:1035B000FE4F0491F901E754FE4F1491112379F065
:1035C00081110E94CA0FE12FF0E0EE0FFF1FE452BD
:1035D000FF4FA591B491EC910E2381E009F480E0B6
:1035E000898FC2CF80E0C1CF20914704260F3327B7
:1035F000331F21323105ECF420919604FC0190E058
:1036000080E0243069F082E00895A0914704219180
:10361000AC01495D5B4FA40FB52FB11D2C930196F2
:10362000861798F380914704680F6093470480E001
:10363000089581E008951092960481E080939504A6
:103640001092700461E082E00E94161061E083E055
:103650000E941610E9EBF0E080818E7F80838081EC
:103660008D7F808388E48093B80085E48093BC00DC
:103670000895CF93DF9391E0909326048823B9F0C7
:10368000C091B800D091BA008091BC008A7B809331
:10369000BC0060E082E00E94161060E083E00E94BF
:1036A00016100E941B1BD093BA00C093B800DF9184
:1036B000CF9108950895E0916F0480916E04E8170A
:1036C00030F4F0E0EA5FFB4F808190E008958FEFE7
:1036D0009FEF089590916F0480916E042FEF3FEF5C
:1036E000981748F4E92FF0E0EA5FFB4F208130E0C3
:1036F0009F5F90936F04C901089580916E0490912B
:103700006F04891B990B0895CF92DF92EF92FF927D
:103710000F931F93CF93DF937C01CB018A012091FC
:103720009C04222389F0EB016B01C40ED51ECC153D
:10373000DD0569F06991D701ED91FC910190F0816F
:10374000E02DC7010995F3CF642F0E94F41AC80138
:10375000DF91CF911F910F91FF90EF90DF90CF906D
:103760000895CF92DF92EF92FF920F931F93CF9322
:10377000DF93EC01962F683109F44BC0B901993100
:1037800030F49431C9F0973189F080E006C0993166
:1037900009F461C09032C9F781E0DF91CF911F91A8
:1037A0000F91FF90EF90DF90CF90089550E08DE162
:1037B00098E00E94841BF0CF8C859D85AE85BF85E7
:1037C000892B8A2B8B2B71F4E881F981A585B0E0D8
:1037D00020EA36E841E050E00E940B2F6C877D879D
:1037E0008E879F8710926F0410926E0410929D0432
:1037F0001092BF040E941B1B8CE69AE190936D040B
:1038000080936C048DE69AE190936B0480936A0434
:10381000C3CF2C853D854E855F8560E074E284EFE3
:1038200090E00E94162F2051310941095109569507
:103830004795379527952093B8008E8990E0959508
:10384000879591E090939C048093BE0410929D0410
:103850001092BF04A1CFD091BF04D13208F093C021
:10386000C091BE040E9475106B017C01809196048A
:10387000811164C082E08093960481E08093950476
:103880008FEF8093940410929304D0939204AEE946
:10389000B4E0E2E7F4E080E0D8137CC01092710459
:1038A00080917104CC0FC82BC09371048091700477
:1038B000813009F073C0109270040E9475106B0182
:1038C0007C01809171048093BB0080919804909159
:1038D0009904A0919A04B0919B04892B8A2B8B2B7D
:1038E00099F00E947510009198041091990420910C
:1038F0009A0430919B046C197D098E099F09061763
:10390000170728073907D8F18091BC0083FDD9CF6C
:1039100085EC8093BC000E9475106B017C01809146
:1039200096048230E9F1809194048F3F61F1809197
:103930009404803241F18091940425C080919804D0
:1039400090919904A0919A04B0919B04892B8A2BA1
:103950008B2B09F48BCF0E94751000919804109165
:10396000990420919A0430919B046C197D098E0969
:103970009F09061717072807390708F077CF8091A6
:1039800097040E94391B10929D041092BF0410925C
:103990009C0402CF9D9191938F5F7ECF85EEB9CF2E
:1039A0008091980490919904A0919A04B0919B04FD
:1039B000892B8A2B8B2B09F4B2CF0E9475100091B2
:1039C00098041091990420919A0430919B046C19E9
:1039D0007D098E099F09061717072807390708F080
:1039E0009ECFCDCFCF93DF931F92CDB7DEB7698344
:1039F00020919C042223F9F02091BF04203258F03A
:103A000021E030E0FC013383228390E080E00F90DE
:103A1000DF91CF91089580919D04E82FF0E0E25668
:103A2000FB4F998190838F5F80939D048093BF04A7
:103A300081E090E0ECCF61E0CE0101960E94F41AA3
:103A4000F7CFEF92FF920F931F93CF93DF9300D0A6
:103A50001F92CDB7DEB719821A821B82662329F125
:103A6000FC01389610E000E0E62EF12C2191222393
:103A7000B9F042814423A1F030E02F5F3F4FD701DE
:103A80000E94382FA42FB0E011969B01AC010E9438
:103A90000B2FA1E0B0E0AC0FBD1FA00FB11F8C93A6
:103AA0000F5F1F4F0330110509F769817A818B8100
:103AB0000F900F900F90DF91CF911F910F91FF907A
:103AC000EF90089581E090E008950F931F93CF93B6
:103AD000DF93209103032F5F322F3770309303035E
:103AE00020FF2BC020E831FD2064347009F02062F3
:103AF000205FFC01EC01239600E011E0678566235E
:103B000029F070E0C8010E94472F6F5F6187822F04
:103B1000869F080E8827811D1124811110C01682EE
:103B2000662311F0615061873196EC17FD0731F77C
:103B3000DF91CF911F910F91089520E0D4CF815054
:103B40008683EECF4F925F927F928F929F92AF9239
:103B5000BF92CF92DF92EF92FF920F931F93CF937A
:103B6000DF932C01EB010E947510F201278D30A12B
:103B7000621B730B68317140B0F3F8948A819B81AA
:103B8000181619060CF0CDC1E881F9816BB1862EAB
:103B9000689487F83BB13F773BB9DA848F812D2D4C
:103BA000281B822F2F834C85042E000C550BAA81D5
:103BB000BB817889FF84E9887F5FF394E3949E81D9
:103BC0009884B984AB841181C12C6C2D0C2D2C2DC3
:103BD0002181112788942111280F08F42FEF819556
:103BE000889470FD120F1795889471FD120F179528
:103BF000889472FD120F1795889473FD120F179514
:103C0000889474FD120F1795889475FD120F1795FF
:103C1000889476FD120F1795889477FD120F1795EB
:103C20008894622F7111612F8D0D162F002C8BB887
:103C300000C017FF3BB920816627889400C000C0F0
:103C4000002C3BB92111290F00C0002C8BB800C0FB
:103C500016FF3BB908F42FEF9195889400C000C07F
:103C6000002C3BB9F0FC620F00C0002C8BB800C0E8
:103C700015FF3BB967958894F1FC620F00C000C046
:103C8000002C3BB96795889400C0002C8BB800C00D
:103C900014FF3BB9F2FC620F6795889400C000C026
:103CA000002C3BB9F3FC620F00C0002C8BB800C0A5
:103CB00013FF3BB967958894F4FC620F00C000C005
:103CC000002C3BB96795889400C0002C8BB800C0CD
:103CD00012FF3BB9F5FC620F6795889400C000C0E5
:103CE000002C3BB9F6FC620F00C0002C8BB800C062
:103CF00011FF3BB967958894F7FC620F00C000C0C4
:103D0000002C3BB96795889400C0002C8BB800C08C
:103D100010FF3BB9122FF110162F9B0D00C000C0F1
:103D2000002C3BB900C000C0002C8BB800C017FFAE
:103D30003BB922816627889400C000C0002C3BB9A3
:103D40002111290D00C0002C8BB800C016FF3BB913
:103D500008F42FEFE40FF51F00C000C0002C3BB9A2
:103D6000E0FC620F00C0002C8BB800C015FF3BB90F
:103D700067958894E1FC620F00C000C0002C3BB93D
:103D80006795889400C0002C8BB800C014FF3BB925
:103D9000E2FC620F6795889400C000C0002C3BB91C
:103DA000E3FC620F00C0002C8BB800C013FF3BB9CE
:103DB00067958894E4FC620F00C000C0002C3BB9FA
:103DC0006795889400C0002C8BB800C012FF3BB9E7
:103DD000E5FC620F6795889400C000C0002C3BB9D9
:103DE000E6FC620F00C0002C8BB800C011FF3BB98D
:103DF00067958894E7FC620F00C000C0002C3BB9B7
:103E00006795889400C0002C8BB800C010FF3BB9A8
:103E1000122FE110162F919400C000C0002C3BB966
:103E20009A0C00C000C08BB800C017FF3BB92181BD
:103E30006627889400C000C0002C3BB92111280FD0
:103E400000C0002C8BB800C016FF3BB908F42FEF60
:103E50008195889400C000C0002C3BB970FD620FB2
:103E600000C0002C8BB800C015FF3BB96795889443
:103E700071FD620F00C000C0002C3BB967958894AB
:103E800000C0002C8BB800C014FF3BB972FD620F5C
:103E90006795889400C000C0002C3BB973FD620F89
:103EA00000C0002C8BB800C013FF3BB96795889405
:103EB00074FD620F00C000C0002C3BB96795889468
:103EC00000C0002C8BB800C012FF3BB975FD620F1B
:103ED0006795889400C000C0002C3BB976FD620F46
:103EE00000C0002C8BB800C011FF3BB967958894C7
:103EF00077FD620F00C000C0002C3BB96795889425
:103F000000C0002C8BB800C010FF3BB9122F7111FC
:103F1000162F8D0D00C000C0002C3BB9119709F081
:103F200086CEEA81FB812EE130E0DF010E94612F25
:103F300030E020E0A901AAE9EA9F0E0E411DFA9F98
:103F4000400D511D11244F0F511DDC01CB01840F79
:103F5000951FA11DB11D893E43E09407A105B10540
:103F600008F434C0885E9340A109B10942E0B695D7
:103F7000A795979587954A95D1F747E0849F080EB6
:103F8000211D949F200D311D1124290F311D609199
:103F9000020370E0860F971F820F931F409127073F
:103FA000509128076091290770912A07292F3327FC
:103FB000420F531F611D711D40932707509328071F
:103FC0006093290770932A078093020378940E94D4
:103FD0007510F20170A3678FDF91CF911F910F9140
:103FE000FF90EF90DF90CF90BF90AF909F908F9019
:103FF0007F905F904F900895579A08956F927F92A7
:104000008F92CF92DF92EF92FF920F931F93CF93F5
:10401000DF93CDB7DEB762970FB6F894DEBF0FBE61
:10402000CDBF8C016B017A01622F0E94211D3B01E3
:10403000882ED8011E962C91C701F7FE04C0882750
:1040400099278E199F09DA82C9829C838B839E836C
:104050008D83688A798A8A8A213049F5CE01019652
:104060000E94651D83E08D871F861E86F7FE02C0B5
:104070008DEF8D87D801ED91FC910088F189E02DBD
:10408000BE016F5F7F4FC801099562960FB6F89425
:10409000DEBF0FBECDBFDF91CF911F910F91FF907B
:1040A000EF90DF90CF908F907F906F9008951C8657
:1040B0001B861A86198618861F82D4CFCF92DF926C
:1040C000EF92FF920F931F93CF93DF93CDB7DEB79D
:1040D00062970FB6F894DEBF0FBECDBF8C016B01A7
:1040E0007A01622F0E94211D9B01482FD8011E9644
:1040F0008C91DA82C982FC82EB82FE82ED82288B6F
:10410000398B4A8B813009F5CE0101960E94651DDD
:104110001D861F861E86D801ED91FC910088F189CD
:10412000E02DBE016F5F7F4FC801099562960FB603
:10413000F894DEBF0FBECDBFDF91CF911F910F91DD
:10414000FF90EF90DF90CF9008951C861B861A8613
:10415000198618861F82DCCFCF92DF92EF922CE077
:10416000829F202D112434E2839FC001112450E04E
:1041700040E030E024553F4FF901E40FF51FE49192
:10418000F0E0BF01660F771FE60FF71FE35CF84F03
:10419000DA01AA0FBB1FA40FB51FA80FB91FAE5C91
:1041A000BD4FCD90DD90EC90C082D182E2824F5F16
:1041B0005F4F4C30510501F7EF90DF90CF9008959D
:1041C000EF92FF920F931F93CF93DF9394E2899F17
:1041D000F0011124EE5CFD4F1CE0DB018C91833279
:1041E00011F46F5F7F4F9B017B01B6E0EB0EF11C7A
:1041F00080E090E0DC01B9012F5F3F4FEB01588177
:1042000040ED450F4A3028F0052F0F7D0154063050
:10421000A0F464E0880F991FAA1FBB1F6A95D1F70D
:104220004A3030F04FEB450F4630A8F449EC450FCB
:10423000842BB901E216F306F1F6A0839183828301
:10424000115033961111C9CFDF91CF911F910F916A
:10425000FF90EF9008954FE9450F463010F449EA7A
:10426000E6CF40E0E5CF9C0170E0FC01E60FF71FD0
:1042700090819923E9F097FF0CC0892F807E803CC4
:1042800051F0892F807F803EA9F0987F84E0903F95
:1042900019F091E00DC082E06F5F7F4FF901E60FEA
:1042A000F71F91E02191222319F09F5F8913FACF24
:1042B000892F089583E0F0CFEF92FF920F931F9321
:1042C000CF93DF93C82FD0E0AE01E6E0440F551F37
:1042D000EA95E1F790E080E0E82FDB012D91BD0148
:1042E000222359F0FC01E40FF51FE45EFC4F20830C
:1042F00001968F33910581F7EFE38E0146E0000FC1
:10430000111F4A95E1F7045E1C4FE00FF12FF11DDC
:104310001082F12CE12CF801EF0DF11D8081882332
:1043200049F06F2DC8010E943321882319F0F80E3F
:10433000E394F1CFFE01E75EFC4FE0828CE694E16E
:104340009093C1088093C008C8010E941318FE0111
:10435000EE0FFF1FED5EFC4F91838083FE01E05F57
:10436000FC4F10820E94CD10CC0FDD1FCC0FDD1F43
:10437000CC5FDC4F688379838A839B83DF91CF9105
:104380001F910F91FF90EF900895CF92DF92EF92DF
:10439000FF920F931F93CF93DF936C01EB017B018F
:1043A000E40EF51E10E000E0CE15DF0561F0699126
:1043B000D601ED91FC910190F081E02DC6010995A7
:1043C000080F191FF1CFC801DF91CF911F910F91F5
:1043D000FF90EF90DF90CF900895CF92DF92EF9211
:1043E000FF920F931F93CF93DF93EC016C0124E0B6
:1043F000C20ED11CFC01E057FF4F0190F081E02D6F
:10440000C60109958E3FEFEF9E07D8F48E010C563A
:104410001F4FF801408151817E01F2E9EF0EF11C3E
:10442000F701608171819C01C6010E948318C05907
:10443000DF4F28812130C1F078F02230B9F02330ED
:10444000E9F081E090E0DF91CF911F910F91FF9013
:10445000EF90DF90CF900895F70120813181820F96
:10446000931F91838083EDCFF801F7CFF70120816F
:104470003181281B390B31832083E3CFF801F7CF3B
:1044800090E080E00895FC0184819581089508956D
:1044900090E080E00895FB0101900020E9F731975A
:1044A000AF01461B570B0C946E110E947C2FFC0130
:1044B000A081B18150962C9182AD38E0839FC001DC
:1044C0001124289FA001299F500D112470E060E065
:1044D00080AD91AD0C94812F1F93CF93DF93EC01AE
:1044E0000E94101A1BAD8AAD180FE881F9818189ED
:1044F000181768F0EC81FD8130E020E040E060E1D9
:10450000CE01099580E0DF91CF911F910895FE01C2
:10451000E557FF4F8081882319F0CE010E94572272
:10452000612FCE010E94FD1981E0EDCFCF93DF9383
:10453000EC01FC01E557FF4F8081882319F0CE0183
:104540000E94572260E0CE01DF91CF910C94FD19BB
:104550002F923F924F925F926F927F928F929F9293
:10456000AF92BF92CF92DF92EF92FF920F931F9381
:10457000CF93DF93CDB7DEB72A970FB6F894DEBF9F
:104580000FBECDBF43E1E42E43E0F42E59E1C52E2A
:1045900053E0D52EAA24A394B12CD601ED916D0140
:1045A000E983EE2391F1D7018D919C91813891059A
:1045B00060F10E94CD108501000F111F000F111F27
:1045C00000501D4FF8014080518062807380641953
:1045D0007509860997096C32714081059105A8F02B
:1045E000F501E15FFC4F808190E0019629812C5F0D
:1045F000622F70E00E94472F80830E94CD10D80167
:104600006D937D938D939C931397BFEFAB1ABB0A69
:10461000E2E0EE0EF11CF4E0AF16B10409F0BDCFFC
:104620008EEB98E00E94962286EFC82E84E0D82E6A
:104630000CE113E093E1892E93E0992E29E133E018
:104640003C832B83EE24E394F12CAB81BC814D9011
:10465000BC83AB83442031F0F401808191818138A7
:104660009105D0F5D6018C91ECE6F4E1F093C10808
:10467000E093C008B80190E00E94B3193FEFE31A3D
:10468000F30A8FEFC81AD80A005C1F4F92E0890E18
:10469000911CA4E0EA16F104C1F68EEB98E00E94AA
:1046A0006C228111C1CF2A960FB6F894DEBF0FBEDF
:1046B000CDBFDF91CF911F910F91FF90EF90DF90D1
:1046C000CF90BF90AF909F908F907F906F905F90B2
:1046D0004F903F902F90089520900C01F701E15FDB
:1046E000FC4F8081B12CA12C712C282F30E03E830F
:1046F0002D8384E0840DA82FB0E0B887AF83872D89
:1047000090E0FC01EE53FD4FFA83E983A21408F018
:1047100049C0FEE3F71508F445C08D819E818A0DDE
:104720009B1D6F8178850E94472F582E841588F530
:10473000312C612C9801260D311D3A872987D9012A
:104740008C91882359F0351448F4662DC8010E94D5
:104750003321882319F0680E3394ECCF60E089850B
:104760009A850E943321E981FA8129853A853A8325
:104770002983870D871591F0A981BA819D91BA830C
:10478000A983992359F0BFE37B1641F07394919369
:10479000F1CF739420E2E981FA8120833FEFA31ADD
:1047A000B30AADCFA981BA811C92F60180812CE6B3
:1047B00034E13093C1082093C00862EC72E05BCF13
:1047C00085ED8093BC008091980490919904A0910C
:1047D0009A04B0919B040796A11DB11D23E0B695E4
:1047E000A795979587952A95D1F72091BC0024FD30
:1047F00003C0109296040895409198045091990432
:1048000060919A0470919B04452B462B472B69F3CA
:104810000097A105B10541F02AE22A95F1F700C001
:104820000197A109B109E1CF809197040C94391B3C
:10483000FC0166870895FC01868590E008951F922B
:104840000F920FB60F9211242F933F938F939F9344
:10485000AF93BF938091270790912807A0912907D4
:10486000B0912A073091260723E0230F2D3758F502
:104870000196A11DB11D20932607809327079093D1
:104880002807A0932907B0932A0780912B079091BE
:104890002C07A0912D07B0912E070196A11DB11DE7
:1048A00080932B0790932C07A0932D07B0932E078E
:1048B000BF91AF919F918F913F912F910F900FBE1C
:1048C0000F901F90189526E8230F0296A11DB11D89
:1048D000D2CF1F920F920FB60F9211248F939F93F6
:1048E0008091E1009091E100937F9093E10083FF3C
:1048F0000FC01092E90091E09093EB001092EC0051
:1049000092E39093ED0010923C0798E09093F000B2
:1049100082FF22C093E09093E9009091F2009923E6
:1049200019F09AE39093E8009091C604992341F01E
:104930009091C60491509093C604911101C05D9A64
:1049400090913B07992341F090913B0791509093B0
:104950003B07911101C0289A84FF18C08091E200A2
:104960008E7E81608093E2008091E1008F7E809353
:10497000E1008091C7048E7E80618093C7049F917F
:104980008F910F900FBE0F901F90189580FFF7CF5B
:104990008091E2008E7E80618093E2008091E10050
:1049A0008E7E8093E1008091C7048E7E8160E5CF8A
:1049B0001F920F920FB60F921124CF92DF92EF92B7
:1049C000FF920F931F932F933F934F935F936F9398
:1049D0007F938F939F93AF93BF93EF93FF93CF9367
:1049E000DF93CDB7DEB76C97DEBFCDBF1092E90085
:1049F0008091E80083FF25C068E0CE0145960E94C3
:104A0000611182EF8093E8008D8987FF39C0909112
:104A1000E80090FFFCCF982F907609F034C19E8972
:104A20004F89588D2F89F88C911131C0803861F5EC
:104A30008091C8048093F1001092F1008EEF809372
:104A4000E8006C960FB6F894DEBF0FBECDBFDF91C5
:104A5000CF91FF91EF91BF91AF919F918F917F91F6
:104A60006F915F914F913F912F911F910F91FF9007
:104A7000EF90DF90CF900F900FBE0F901F90189582
:104A80009EEF9093E800C7CF1092F100D5CF913000
:104A900059F48111D3CF4130510581F68091C8047A
:104AA0008D7F8093C804CACF933049F48111C6CF5B
:104AB0004130510519F68091C8048260F2CF9530DB
:104AC00041F48091E80080FFFCCF20682093E30050
:104AD000B5CF963009F0A9C00B8D1C8D22E0109245
:104AE000E9001092C4041092C304F2122EC0109276
:104AF000C2041092C1040E9430111F8299E0998370
:104B0000FA8291E09E8390EA98879AEF99872091A4
:104B1000C3043091C404275F3F4F3C832B838D83B4
:104B20001092E9001092C4041092C3041093C204BE
:104B30000093C10449E050E0BE016F5F7F4F80E009
:104B40000E940A110E94301179CF1093C204009381
:104B5000C1040E94B60FDC0112960D911C91011543
:104B6000110509F451C1D801ED91FC910480F58142
:104B7000E02DBE016B5E7F4FC8010995009709F0DB
:104B80003EC1F80100851185EACFF3E0FF120EC0A7
:104B90008F89882309F440C0823061F440E860E1E5
:104BA0008EE491E00E944A29811148CF81E28093EE
:104BB000EB0047CF813029F440E86BE082E491E0DC
:104BC000F1CF833099F70E94B60FDC011296ED9079
:104BD000FC908E010F5F1F4F6801E114F10479F022
:104BE000D701ED91FC910680F781E02DB801C70156
:104BF0000995080F111DF701E084F184EECFD8016B
:104C00001C92F60101900020E9F73197BF016C1961
:104C10007D0940E0C601C6CF6CE271E0FB01449122
:104C200050E080E80E940A1109CF973009F4BECF06
:104C3000983021F481E08093F10000CF993009F0A1
:104C4000FDCE837009F0B2CFE4E7F1E081E031E01E
:104C500096E32191222371F08093E9003093EB00D9
:104C6000DF0111972C912093EC009093ED008F5F62
:104C7000873079F78EE78093EA001092EA008F89F7
:104C800080933C07DBCE8B8D9C8D1092E9001092B7
:104C9000C4041092C3049093C2048093C104898D0C
:104CA000811192C08E899D89913A49F4813209F02F
:104CB0007DCF47E050E064E071E080E0B3CF913217
:104CC00009F074CF833269F48F89988DB0E0A0E049
:104CD0008093000190930101A0930201B09303011E
:104CE000ADCE803269F48091E80082FFFCCF67E0AE
:104CF00084E091E00E9461118BEF8093E8009ECEEA
:104D0000823209F09BCE8F8980930B01EEEFFFE793
:104D1000859194918B3F9C4D51F1E0E0F8E08091BA
:104D2000040190910501A0910601B0910701803B1B
:104D30009440A105B105F1F480910B0180FD1AC0EA
:104D4000EE3F8AE0F80789F587E797E7918380834C
:104D5000809160008093C50488E19BE00FB6F894D1
:104D6000A895809360000FBE9093600067CEEEEF31
:104D7000FAE0D5CF808191818737974709F05ECEE1
:104D8000A895809160008861809360008091C5043F
:104D900080936000EE3F2AE0F20789F08091FE0ADE
:104DA0009091FF0A9183808349CE808191818737DA
:104DB000980751F29093FF0A8093FE0AC5CF109294
:104DC000FF0A1092FE0A3ACE0E94B60FDC0112963C
:104DD0000D911C910115110509F4E8CED801ED9152
:104DE000FC910190F081E02DBE016B5E7F4FC80108
:104DF0000995811123CEF80100851185EBCF181696
:104E000019060CF41BCED2CEF1E0FF12BECE60E349
:104E100071E004CF1F920F920FB60F9211242F93BF
:104E20003F934F935F936F937F938F939F93AF9332
:104E3000BF93EF93FF938091B900887F803609F488
:104E40004AC0F0F5883209F4A7C018F5803109F49A
:104E50009BC0B8F4882309F4F9C0883009F494C0E1
:104E6000FF91EF91BF91AF919F918F917F916F9142
:104E70005F914F913F912F910F900FBE0F901F9018
:104E80001895883109F488C0803251F780939404D2
:104E900014C0803409F49DC040F48033B9F38833E2
:104EA000F9F68093940485ECB0C0803509F485C090
:104EB000883509F496C0883499F60E94E023D0CF53
:104EC000883909F48CC038F5883729F050F48836D1
:104ED00011F0803729F683E08093960410926904DC
:104EE00057C0883809F47BC0803919F0803809F040
:104EF000B7CF80916904803208F071C0E0916904F5
:104F000081E08E0F809369048091BB00F0E0E75B45
:104F1000FB4F80833DC0803B39F0E0F4803A09F4D8
:104F200079C0883A09F09CCF84E08093960410926F
:104F3000480410924704E0916C04F0916D040995C7
:104F40008091470481110FC081E080934704109243
:104F5000270409C0803C09F4A6CF883C09F4A3CFFC
:104F6000883B09F07DCFE091480481E08E0F80936B
:104F70004804F0E0E95DFB4F80818093BB00909195
:104F800048048091470429C0809171048093BB003C
:104F900085EC8093BC0064CF90919304809192043F
:104FA000981758F5E091930481E08E0F8093930455
:104FB000F0E0EE58FB4F8081E9CFE091930481E06F
:104FC0008E0F809393048091BB00F0E0EE58FB4F6E
:104FD000808390919304809192049817C8F285E899
:104FE000D8CFE091930481E08E0F80939304809159
:104FF000BB00F0E0EE58FB4F808380919504811157
:105000005CCF81E08093700484EA8093BC001092AE
:10501000960426CF85EC8093BC0010929604809174
:105020006904803230F4E0916904F0E0E75BFB4F03
:1050300010826091690470E0E0916A04F0916B0461
:1050400089E494E00995109269040ACF10929404BF
:1050500034CF7F928F929F92AF92BF92CF92DF9286
:10506000EF92FF920F931F93CF93DF938C01762ED5
:10507000F80183819481A581B681892B8A2B8B2BA2
:10508000D1F00E947510C0900204D0900304E0900B
:105090000404F09005046C197D098E099F09D8015C
:1050A0001396CD90DD90ED90FC9016976C157D05D4
:1050B0008E059F05E8F20E947510609302047093BC
:1050C00003048093040490930504D8011B96ED918A
:1050D000FC911C97309749F017964D915D916D9119
:1050E0007C911A97872D0995782EC091CB04D09189
:1050F000CC0492EEC92E93E0D92E22E0A22E24E019
:10510000B22E7601209749F1AE14BF0431F18E8D95
:105110008823F9F0E881F981828493840680F781FD
:10512000E02DCE010995BC01CE01F4010995D7010E
:105130008D939C93D80111968D919C918436910505
:1051400008F41E860E80DF81C02DB2E0EB0EF11C4C
:10515000D9CFF70111821082EDCFC091CB04D0914D
:10516000CC0480E1E82EF12C2097B1F08E8D8823BD
:1051700061F04C815D816A817B81E881F9810280E7
:10518000F381E02D272DCE0109950E80DF81C02D02
:10519000E1E0EE1AF10841F7C091CB04D091CC04C4
:1051A0002097C9F0F2E0CF16F4E0DF06A1F08E8D73
:1051B000882351F0D6016D917C91E881F9810484B6
:1051C000F585E02DCE0109950E80DF81C02DB2E07E
:1051D000CB0ED11CE5CF8091E0039091E103EC016F
:1051E0002196D093E103C093E0034997ACF10E946C
:1051F000CD10C090DC03D090DD03E090DE03F09092
:10520000DF039B01AC012C193D094E095F0921F414
:1052100021E030E040E050E088EE93E0C89FB0012C
:10522000C99F700DD89F700D1124072E000C880B9C
:10523000990B0E94162FF801328321831092E1030B
:105240001092E0030E94CD106093DC037093DD03A5
:105250008093DE039093DF03DF91CF911F910F9135
:10526000FF90EF90DF90CF90BF90AF909F908F9086
:105270007F9008956091290889E298E00C9429288C
:105280001F920F920FB60F9211240F900FBE0F9026
:105290001F901895EF92FF920F931F93CF93DF9378
:1052A000F82E192FE62E042F81E0860F880F0E941A
:1052B000DC1083E00E94DC10CF2DD12FEC0EFD2EF0
:1052C000F11CCE15DF05B9F007FF13C0FE01849174
:1052D0000E94DC10182F80E00E94DC1081232196B0
:1052E0008111EFCFDF91CF911F910F91FF90EF9040
:1052F00008958881EDCF81E0F5CFCF931092D0074C
:105300001092CF0788EE93E0A0E0B0E08093D10741
:105310009093D207A093D307B093D40728EA31E043
:105320003093CE072093CD072FEF3FEF3093DA076E
:105330002093D9071092200810921F08809321080B
:1053400090932208A0932308B09324088AEB91E05D
:1053500090931E0880931D088FEF80932908109268
:105360002B0810922A0810923508109234084FEF3B
:105370005FEFBA01409330085093310860933208D0
:105380007093330810922C0810922D0810922E085A
:1053900010922F084AEF50E060E070E0409336082A
:1053A0005093370860933808709339081092BD08FD
:1053B0001092BC0825EE3EE030934B0920934A0939
:1053C00010924D0910924C0910924F0910924E09FB
:1053D0001092D6082CEC31E03093BB082093BA0829
:1053E0001092BF081092BE081092D3081092CA08FB
:1053F0001092CB081092CC081092CD088093D4085C
:105400008093D808ECEDF8E082EF98E0CFEFC193FD
:105410008E179F07E1F78DE093E19093C308809387
:10542000C20882E094E19093C5088093C40881EBA0
:105430009BE19093C7088093C6088EE69AE190930B
:10544000C9088093C80830E020E040E069E08EEBB6
:1054500098E00E940D1310921909109218098FEE0E
:105460009EE09093F3088093F2088AE398E090938B
:10547000F7088093F60881E08093F8081092F90805
:105480001092270910924709109243098093480906
:105490008093490984ED91E09093F5088093F40896
:1054A0008EEB98E00E94BD14109211091092100921
:1054B00010921509109214098FEF9FEF9093130922
:1054C000809312099093170980931609E091F408CC
:1054D000F091F5080280F381E02D8EEB98E00995BC
:1054E0008EE59FE090931B0980931A0910922A0978
:1054F000C093E708C093E808C093E908CF910895E6
:10550000CF93DF93CDB7DEB7A1970FB6F894DEBF88
:105510000FBECDBF789484B5826084BD84B58160B0
:1055200084BD85B5826085BD85B5816085BD80916E
:105530006E00816080936E001092810080918100E6
:1055400082608093810080918100816080938100DE
:1055500080918000816080938000809191008260C2
:10556000809391008091910081608093910080915F
:1055700090008160809390008091C100846080934E
:10558000C1008091C10082608093C1008091C10000
:1055900081608093C1008091C30081608093C300CB
:1055A0008091C00082608093C0008091C2008160C1
:1055B0008093C20080917A00846080937A00809109
:1055C0007A00826080937A0080917A008160809373
:1055D0007A0080917A00806880937A0010923C076C
:1055E0001092C8041092C7048091D7008160809304
:1055F000D70080EA8093D80089B5806189BD89B5DC
:10560000826089BD09B400FEFDCF61E070E080E0FA
:1056100090E00E949A108091D8008F7C80618093E6
:10562000D8008091E000807F8093E0008091E100CD
:105630008E7E8093E1008DE08093E200559A209A5F
:105640008FEF9FEF9093DA078093D9078091EE0454
:10565000811150C01092D0041092CF041092D20445
:105660001092D1041092D4041092D3041092E60444
:105670001092E5048FEF8093D5048093D604809335
:10568000D7048093D8048093D9048093DA0481E00E
:105690008093DB041092E40492E09093EA048093F8
:1056A000EB048091CB049091CC04892B31F48DECE8
:1056B00094E09093CC048093CB04E091C904F091E2
:1056C000CA04309721F08DEC94E0978386838DECAB
:1056D00094E09093CA048093C9041092ED04109250
:1056E000EC0482E991E09093CE048093CD0481E0B4
:1056F0008093EE04579A8DE397E09093D0048093C3
:10570000CF0480E390E09093D2048093D104809101
:105710002C0890912D08A0912E08B0912F08843C60
:1057200029E09207A105B10520F484EC99E0A0E0FE
:10573000B0E080932C0890932D08A0932E08B0938E
:105740002F0820910D0130E0AFEFB0E00E94382F1C
:1057500024E630E040E050E00E94EC2E209329083F
:1057600019821A821B82CE0101960E94610F0E944B
:105770003A29E091C208F091C30830E020E040E00F
:105780006AE08EEB98E009958EEB98E00E949622F5
:105790008EEB98E00E946C228111FACF60E08EEBD4
:1057A00098E00E94FD19E091C208F091C30830E032
:1057B00020E040E06BE08EEB98E009950E946F0FCF
:1057C00081E08093270980911809909119098651E9
:1057D000924009F495C0E6E1F2E0F0931909E093F4
:1057E0001809E491E0932B09E7E1F2E0E491E093FA
:1057F0002C09E8E1F2E0E491E0932D09E9E1F2E01F
:10580000E491E0932E09EAE1F2E0E491E0932F09BC
:10581000EBE1F2E0E491E0933009ECE1F2E0E491B5
:10582000E0933109EDE1F2E0E491E0933209EEE139
:10583000F2E0E491E0933309EFE1F2E0E491E093E8
:105840003409E0E2F2E0E491E0933509E1E2F2E0CC
:10585000E491E0933609E2E2F2E0E491E093370963
:10586000E3E2F2E0E491E0933809E4E2F2E0E4916B
:10587000E0933909E5E2F2E0E491E0933A09E6E2E7
:10588000F2E0E491E0933B0961E186E192E00E945D
:105890009B1790933D0980933C0963E186E192E078
:1058A0000E949B1790933F0980933E0965E186E132
:1058B00092E00E949B179093410980934009809148
:1058C000180990911909892BD9F080913809809392
:1058D000440940913909409345099091430999231E
:1058E00079F0913009F09AC090913A09891714F42F
:1058F0009093440980913B09841714F480934509DF
:1059000080914409E82F880FFF0B40914509042E30
:10591000000C550B57FF03C0519541955109BF012C
:10592000640F751F161617060CF093C09B016531A6
:10593000710514F425E130E0C901861B970B97FD32
:1059400001969595879597FF02C090E080E08E0FB5
:105950009F1FB901680F791F260F371F420F531F72
:105960004134510544F040545109841B950B641B8C
:10597000750B241B350B97FF6FC0681B790B281B19
:10598000390B80E08093F6046034710514F06FE306
:1059900070E06093F7042034310514F02FE330E019
:1059A0002093F80460913409662339F070E080E8B0
:1059B00090E00E94472F60930C0180910C018111AF
:1059C00003C085E180930C010E94A82294E6892EF1
:1059D000912CA12CB12C2AE0422E512C612C712C3F
:1059E0008DEC97E00E947512892B09F4C0C18DECF3
:1059F00097E00E9433128A30910509F09CC1809192
:105A000025070091230710912407882369F110923C
:105A100024071092230710922507E2CF3091350911
:105A200020913709082E000C990B622F022E000CD2
:105A3000770B630F711D37FD7A95861797071CF456
:105A4000320F3093440924170CF05ACF20934509A4
:105A500057CF61E070E06ECF803491050CF492CFA7
:105A60008FE390E08FCF89010115110509F491C0F2
:105A7000980121503109F901E350FB4F80818032B8
:105A800091F3893081F31093240700932307F801E1
:105A9000E350FB4F10826AED71E08DEF94E00E94BD
:105AA000932F892B09F07AC084E891E00E940912B3
:105AB0006EED71E08DEC97E00E944B2219821A8204
:105AC0001B82CE0101960E94610F0E943A290DE3CC
:105AD00017E0C12CD12C760119821A821B82CE01CB
