:100000000C94A60E0C94DB0E0C94DB0E0C94DB0E01
:100010000C94DB0E0C94DB0E0C94DB0E0C94DB0EBC
:100020000C94DB0E0C94DB0E0C9461240C94D02405
:100030000C94DB0E0C94DB0E0C94DB0E0C94DB0E9C
:100040000C94DB0E0C9438290C94DB0E0C94DB0E14
:100050000C94DB0E0C94DB0E0C94DB0E0C9417242A
:100060000C94DB0E0C94DB0E0C94DB0E0C94DB0E6C
:100070000C94DB0E0C94DB0E0C94DB0E0C94DB0E5C
:100080000C94DB0E0C94DB0E0C94DB0E0C94DB0E4C
:100090000C9402270C94DB0E0C94DB0E0C94DB0EFC
:1000A0000C94DB0E0C94DB0E0C94DB0E00010203AF
:1000B00010111213070605041716151408090A0B68
:1000C00018191A1B0F0E0D0C1F1E1D1C000000001E
:1000D0002300260029002C002F00080B000202023A
:1000E00000000904000001020200000524001001C4
:1000F0000524010101042402060524060001070568
:10010000810310004009040100020A0000000705F5
:1001100002024000000705830240000004030904B6
:1001200012010002EF02014041233680000101026A
:10013000030141726475696E6F204C4C430041723B
:100140006475696E6F204C656F6E6172646F003DFF
:100150003D3D2043414C4942524154494F4E204479
:100160004F4E45203D3D3D0072617720696E6465CC
:10017000783A20003D3D3D2043414C494252415494
:10018000494F4E204D4F4445203D3D3D000000006D
:1001900000240027002A002D003000000000002568
:1001A0000028002B002E0031000404040404030482
:1001B0000502020202040302020202060606060605
:1001C00006040402020204040408020110408040F4
:1001D000102040804080080204018040201002016D
:1001E000108010204040200000000200090F000095
:1001F000030401000C0000000000000000000000EB
:100200000000000000008300030304050406050A43
:100210001400FC0DFC0D0001EC03BF055E20060080
:1002200010D6002108D218D4783011220B4634D5CC
:10023000103149421100231AB932D493082542895A
:10024000E8109208254289E81092082542890C009E
:100250002417D812D4135A542832894C22344A64B1
:10026000129984A26294012514C912D4194974A167
:100270004DC472B15C2C9951F434012619D912D4B1
:100280009A4A8412A14448164F2542918436918996
:100290002624920027085218D5384800280DD51674
:1002A000D413A989643ACA840A290ED514D410AA91
:1002B00009653AC9446A002A0E7872D41169231D6F
:1002C00042349116002B0C7872D413AB1D62623548
:1002D000002C0834F6D39958002D0718D2D43804CE
:1002E0002E073318D438082F10C714D455940AA5F4
:1002F00042A9502A944A013011D812D493D2445AB8
:10030000843C4A44DAA83200310DD812D4930E69E5
:1003100012B1FE76083212D812D4A2892442A25811
:100320005538942A8B0F013314D812D4A289244251
:10033000A2582A9CCB8944894846023414D812D446
:100340000E4B87348948452691490E51B116003528
:1003500012D812D4388C75198DE4623151229291E1
:10036000003615D812D4A28924C288586534920860
:10037000394A443212003712D812D4388455C55243
:10038000B1542C154BC552003815D812D4A289246B
:1003900042468948461349848C12918C043914D8FA
:1003A00012D4A28924428E12D18A58252811C94814
:1003B000003A088318D4B0430D3B0A94F6D359474A
:1003C0009B58003C0BD712D48E0AF5ACE7003D0ACF
:1003D0006872D438C4713C043E0BD714D408EBA324
:1003E0005EC3003F10D812D4A289244246A9667584
:1003F000B858064016D812D4A289244292E522A108
:100400004828121691BA4C5401410FD812D493D2F5
:10041000445A848C87228F024216D812D4A889D4D9
:100420002432894C22129964122137890900431021
:10043000D812D4A2892442B27E9488642400440D48
:10044000D812D430C92442FE9BC404450DD812D41E
:10045000388C753689753E04460CD812D4388C75A4
:100460003689F50C4711D812D4A2892442B226232A
:100470004789684409480CD812D410F2F150E4A31B
:1004800000490CD812D438C4C4FA6F87004A0FD977
:1004900012D4B3CAF5934C2453910E014B14D812C5
:1004A000D410B249641291A69A4837894C22240A82
:1004B0004C0AD812D410EB7F3E044D14D812D4103D
:1004C000124BA6834542915024140991A3004E1269
:1004D000D812D410D66A261345429190DC1A8902AC
:1004E0004F0FD812D4A2892442FE5122929100507B
:1004F0000FD812D430C92442DE2426B1CE005111C7
:10050000E8F2D3A2892442FE22215144B2BA005219
:1005100012D812D430C92442DE24266D12994448E0
:10052000145313D812D4A2892442B25C4E57264ADF
:1005300044321200540BD812D438C4C4FADF005528
:100540000DD812D410F23F4A44321200560FD8127E
:10055000D410729488F4466415AB015712D812D4A3
:1005600010F245429150241449C954240A5813D812
:1005700012D4101225226D44AA9448136911120551
:10058000590FD812D4101225226D44AA58DF005AF0
:1005900010D812D438845595A5CA5265F121005B54
:1005A0000AD614D43804F51F0D5C10C714D4908AF1
:1005B000A562A9582A968AA5025D0AD614D430EA03
:1005C0003F1E025E0B4832D593D24412A1005F0752
:1005D00019F2D3380860073456D59029610E881275
:1005E000D42AC9C49283905152096211D812D410EE
:1005F000EB65349208399624921100630D8812D469
:100600002AC9C8DA65A20A00640ED812D4D6D34427
:10061000A9C851225A11650F8812D4A28924C24355
:10062000592E135500660DD812D4A38974161AC515
:10063000FA086714C892D3A9CC6A129944262AC929
:100640002D4246890500680DD812D410EB6534920E
:1006500008F928690CB812D413CBA1647D3B046A55
:100660000EF794D3558751F595C626A9006B12D87D
:1006700012D410EB4D225291116B22358950006C2F
:100680000AD812D421EB7F3B046D138812D488A8BA
:100690001C26128A8422A14828128A026E0C881213
:1006A000D4908C4612211F056F0E8812D4A2892483
:1006B000428E12918C047011C892D3908C461221F4
:1006C000C7924432126B06710EC892D39A2815391C
:1006D0004A442B621D720C8812D490904612B15E6F
:1006E00001730D8812D4B108E97631516201740D9D
:1006F000B812D4122B1AC57A925100750B8812D4F5
:1007000010F251225A11760E8812D4101225226D41
:1007100044AA580677108812D4107291502414C934
:100720006122920078108812D4104A4432AA584AA2
:10073000134984027911C892D310F251225A11132D
:1007400025221909007A098714D4B80AF57A7B0C96
:10075000D812D4A48975A38B75277C07D218D4F836
:10076000507D0DD812D4A08B75A7897523027E0BFE
:100770003852D5195124A409000000000804640768
:1007800017FFFF0400110813D499CB8187B1CE263F
:10079000B1CE87000401110813D41169071DC63AB0
:1007A0009BC43A1F0204021CF9D0D33804E5EA4581
:1007B000914C2413C94432914C2413C94472B1049E
:1007C0000004030E0813D41BCAA187B1FE670004FE
:1007D0000413D812D4A2892442B2F245AC51229219
:1007E0009100040514D812D4A2892442B25C4E5759
:1007F000264A4432120004060DD812D438C4C4FA72
:100800006F87000407100813D41169071D6262FD89
:10081000B7430004080FD812D42BEB672251229261
:100820009100040919D910D4294A8412A14428112D
:100830004A48124948A2FF97888802040A1DD81224
:10084000D490C82432894C2293C824B28B4A448560
:1008500022A1482892888402040B19D910D43804A4
:10086000E55A8413994826928964229948269289E8
:1008700004040C160813D4D5266493C824224D35DD
:10088000916E1299444814040D120813D4922B0946
:10089000792B590E13538DC828040E130813D41145
:1008A000C9E830211F2567CD44890500040F0EF8E3
:1008B000D2D310F27F3CCCC43200041010D812D432
:1008C00093D2445A848C87228F02041111D812D4F7
:1008D000B8887536C924426E121300041217D81254
:1008E000D4A889D42432894C2212996412213789E0
:1008F000090004130BD812D4388CF53F03041410EC
:10090000F8D2D3A34944FAFFBF1C86440104150E54
:10091000D812D4388C753689753E0404161AD8124C
:10092000D4904828128A8422A1A8D86816158A84EF
:1009300022A148280A041715D812D4A2892442A259
:10094000582A9CCB894489484602041811D812D4ED
:1009500010F256B21C26A61A91510004191408135D
:10096000D411C9E830216F25CB6162AA11190504A1
:100970001A15D812D410B249641291A69A48378930
:100980004C22240A041B1AD812D42BA9C824328959
:100990004C2293C82432894C2293C86A4401041C17
:1009A00015D812D410124BA6834542915024140935
:1009B00091A300041D0DD812D410F2F150E4A3004D
:1009C000041E10D812D4A2892442FE512292910012
:1009D000041F0BD812D4380CF93F0A042010D81287
:1009E000D430C92442DE2426B1CE00042111D8120D
:1009F000D4A2892442B27E948864240004220CD8B4
:100A000012D438C4C4FADF0004230FD812D410F271
:100A10005172D64C945800042419D812D4135A5445
:100A200028128A8422A14828128A84A26214CB0048
:100A3000042514D812D4101225226D44AA94481308
:100A40006911120504261EF9D2D3104A8412A1445A
:100A500028114A8412A14428114A8412A144283939
:100A6000C81504270CD812D410F2A3E4AC0704284C
:100A70001DD812D4904828128A8422A14828128AAC
:100A80008422A14828128A8422390C04290FF9D221
:100A9000D390E8FFFFFF7F39C815042A10D812D47D
:100AA0002046C49A6B22FD4F1500042B16D812D491
:100AB00010F268A24828128A8422A14828129300C2
:100AC000042C10D812D410EB6C924984BC494C0011
:100AD000042D13D812D4A2892442B196B3325122E4
:100AE000929100042E1CD812D4104D5428128A84DE
:100AF00022A1482E14094542915024140969020488
:100B00002F14D812D4B2C8881C2532914945269199
:100B100011890204300F8812D42AC9C492839051DB
:100B20005209043113C812D40E95C4F2D24822E4FB
:100B30002811C948000432108812D430C92432C99F
:100B400045C878900004330B8812D4388CF519000E
:100B500004340FA8D2D3A34944FA2F8721510004AB
:100B600035108812D4A28924C243592E135500048B
:100B700036128812D4904828128A8AC9A24291500B
:100B80001404370F8812D4B108C5A2B29C28B10052
:100B900004380E8812D410B2952C12538D280439C3
:100BA00012B812D411C9E830215BC92231D58802AC
:100BB000043A118812D410D2242251AD265293083F
:100BC00005043B128812D42BA9C82432894C2293E5
:100BD000C88802043C118812D410960E16094542AA
:100BE00091108902043D0C8812D410321E8A1C0513
:100BF000043E0F8812D4A28924428E12918C0404E0
:100C00003F0B8812D4380CF95100044012C892D31B
:100C1000908C461221C7924432126B0604410E8812
:100C200012D42AC9C8DA65A20A0004420B8812D479
:100C300038C4C4FA06044312C892D310F251225A9F
:100C400011132522190900044417E892D3130B2D20
:100C50002A140945429150241415A3581B00044539
:100C6000118812D4104A4432AA584A134984020403
:100C70004615A8D2D390496412994426914964122A
:100C800099E4105604470B8812D41072949C3504D2
:100C900048148812D4904828128A8422A148281225
:100CA0008AE43004490DA9D2D390E8FFFF72902B5B
:100CB000044A128812D4984E4F32894C2293C82489
:100CC0001600044B128812D410124D14094542919B
:100CD00050242601044C0E8812D4102B5F848C07FC
:100CE0000900044D0E8812D4B108C56A65A2C40279
:100CF000044E148812D4104D5428920B4542915042
:100D000024A40900044F0F8812D439081925271587
:100D1000195100045013C812D492AB43692289F0D0
:100D20005096CB441500045113B812D4116907D260
:100D30004412E1A12C97892A0004521B1893D31165
:100D40004B6D6215D9442493C82432894C2293C830
:100D5000C4AA4A0004530DC812D494AA430F637D59
:100D60000604540E8812D4B108C935B1A2C40204D5
:100D7000550E8812D4B108E9763151620104560D3E
:100D8000B812D413CBA1647D3B0404570EC812D40F
:100D900011698791F5DB210004580FF794D355872B
:100DA00051F595C626A9000459128910D4294A8400
:100DB00012A18424D12F240A00045A138812D4903B
:100DC000C8243289ECA2429150242C00045B17D92C
:100DD00010D4912B57E592D9485122940825428985
:100DE000502214045C12C812D494AA4365254DB550
:100DF0009A484D2214045D11C812D492ABC3846C7E
:100E0000258BC454230A045E15F892D311C9E83027
:100E1000211F25A215315122929100045F0DA8D205
:100E2000D310F2E361269601046018D812D4114958
:100E300084BC4828128A8422A14828128A260900E4
:100E40000461118812D4107291502414C961229245
:100E500000046219E812D4114B6B93A0585C13A9DB
:100E600049641299442611894A00046314B812D4C3
:100E7000898BA536B149269149641299C40204644C
:100E80001CD812D4104D5428128A4C2293C82E6AB2
:100E900012994426915024A409000465138812D4A1
:100EA000104D5428B28B9A44269190260004661760
:100EB000D812D493D2445A84C4D2C122A148281251
:100EC0008A84A2000467118812D493D24492D1C1BB
:100ED00022A148280A04681DD712D488854293505D
:100EE00024453289496207498A244592224991A4BE
:100EF00048320469137732D488854293502472882B
:100F0000A448522419046A17D812D4380C891291B3
:100F10008C2AA5595428128A8422A128046B10888F
:100F200012D438444432AA946651A128046C1BD7C9
:100F300012D4885862929844329A944293882545F4
:100F400092224991A44832046D117732D4885862B4
:100F5000A248A4149A649164046E1828D3D311C9CA
:100F6000A872304D241112A5C2B9B2AAA824160342
:100F7000046F15E8D2D311C9A872A8454894CAC510
:100F80002A16B11800047016D812D4904828128A74
:100F90008422A148282A36AA583700047117C8D2DB
:100FA000D313CB24128A8422A14828128A8A8D2A3C
:100FB0009601047212D812D4A28924428E87224745
:100FC000894846020473118812D4A28924C243912D
:100FD0002811C94800047412D812D410D2243289BE
:100FE00048BF1159C58A0004750F8812D410D22445
:100FF000226D44AA5808047616F812D410C9447217
:10100000909026914944FA8DC82A1602047714B8A4
:1010100012D410C9447290902611692352C542001F
:1010200004781E0AB1D3194BA412A9442A914AF894
:101030004512A1482CA28A483493AB43640004793A
:1010400017BAB0D39948F822895024165145249AEA
:10105000C9D5213200047A11F8F2D393D22C2A4454
:10106000FEA262A3CA00047B10A8F2D393D22C2A5A
:101070004416151B5506047C1AF812D4B108E52055
:1010800015211709454291502414094542D12401E4
:10109000047D18B812D4B108E510214542915024BE
:1010A0001409457298882400047E1BF812D43888ED
:1010B0004471908A908B8422A14828128A8422A1AC
:1010C000689200047F19B812D4388844718890223D
:1010D000A14828128A8422394C441200048011F855
:1010E000D2D3A2892442B27E97D3C5120004810FC5
:1010F000A8D2D32AC9C8DAE573B10800048214C89B
:1011000012D496CA24C2F15042118E871299540CFF
:1011100004830936B2D53C0C0104840A37B0D522C9
:1011200089680204850935B2D590DD00048608354A
:10113000B2D5BB0904870B38B2D5194A46B20104AF
:1011400088194A91D34D8AC422D138241DFFFF1437
:1011500087A42645629120000489174A91D34D0A3D
:10116000CA4411B11CFFFF22968464C250340A04A1
:101170008A2339B3D31109E950A14428114A8412B2
:10118000D9444491B4484892994428114A8473B18F
:101190001200048B1AE9B2D31109E950A144289135
:1011A0004D44142D24C94C229C8B9500048C17D9D6
:1011B00010D4918BC972B94D4928114A8412A144A7
:1011C000263201048D118910D41193E527A14428FA
:1011D000114A2E00048E12D812D430C924422E1285
:1011E000D2E422246B06048F14C892D3908C46124A
:1011F0002117496522A108C9CA0004900CE812D43D
:10120000161FCAFACF0004910BA812D4161FCAFAEF
:101210000C04920DD812D4328975348AF5080493DF
:101220000D8812D43289156F624500049412F8D2E9
:10123000D3388C7536C924421EC552090004951254
:10124000A8D2D3388C954D32894C22134B450004DB
:101250009612F9D2D390E8FF93916892E8FF65AEB9
:101260000004970FA9D2D390E84F369344BFCC1512
:1012700004981808B3D3A2892442A2582A9CCB8987
:1012800044894846154B8500049912B8B2D3B10879
:10129000C5A2BA9828318AA54200049A1BF9D2D374
:1012A000904684129948265213C98A229948A62446
:1012B00013098B7305049B12A9D2D310866422B53F
:1012C0006251245312CE15049C1CD812D410D2247F
:1012D000328924A2125189484C92884A4425A22678
:1012E000111205049D128812D41052429488E445CC
:1012F0001251091105049E1AD910D49146841791F0
:101300004CA42692154532914C4926124A84020477
:101310009F15D910D4912B57E532919A44482D8AC4
:10132000644A420104A01BD910D4984684129948FB
:10133000265213C98A229948A6241309254201047A
:10134000A1118910D4184A6422B562512453120A9B
:1013500004A21EF9D2D3104A8412A14428114A844F
:1013600092434428114A8412A1442811CE1504A3A3
:1013700015A9D2D3104A8412A1E410114A8412A1F3
:1013800044385704A41DDA10D4101D424291502451
:1013900014094542A34828128A8422A1482812022F
:1013A00004A5148812D4905C6412594D2293C82469
:1013B00032890C0004A620F9D0D3B0896422994860
:1013C00026928964228A48429290242409494292B2
:1013D000C8C5120004A716A8D2D3A84964129984DC
:1013E000A2429150241465A9040004A814E9F0D382
:1013F000228AE5BA894414258A8849D10E1104A9A4
:1014000012A8D2D3A249C5A2890A458522AACA0731
:1014100004AA1308B3D3A2892442B27E94886454E8
:10142000B15C0404AB10B8B2D32AC9C8DA65A2A271
:10143000582E0204AC0EF8D2D338C4C4FACF6325B8
:101440000004AD0DA8D2D338C4C47A1E2B0104AE5B
:1014500010D812D4101225226D44AA58DF0004AF10
:101460000FB8B2D3101225221955AC6F0004B01278
:10147000D812D4101225226D44AAD028D60D00040B
:10148000B111B8B2D3101225221955AC6814AB01B2
:1014900004B217F9D2D3104A84223591904A1653D8
:1014A00089229948B1385704B310A9D2D3108A14AD
:1014B000C9723151A4385704B411FAD0D3B0C8F46A
:1014C000FFFFED1087C8210204B510AAD0D3B0C821
:1014D000F47F3BC42172880004B617F9D2D3104AB6
:1014E0008412A14428114A8412A1E8AE7D3C57041D
:1014F000B711A9D2D3104A8412A14428BAABCF1590
:1015000004B812D812D410F2254409496E21594862
:10151000AC0104B9118812D410B2842821C92D2439
:101520000B890504BA0DD812D410EB7C11F2A3007C
:1015300004BB0ED712D490EA453451E39B0004BC9F
:1015400016D910D49C4A64B2896C22931C4272DD75
:1015500054A4230004BD148910D4A484441399E432
:101560001092CB212221050004BE1909B1D39C4A57
:1015700064B2896C22931C4272DD54A47395B0044A
:101580000004BF17B9B0D3A484441399E41092CBDC
:10159000212221592E094B0004C00DD812D438C481
:1015A000C4FA6F870004C11CF812D411C9E830894D
:1015B0008422A148282A369A458522A14828128AE1
:1015C0000204C216B812D411C9E830898422A1A835
:1015D000982C2A1409450104C316F8D2D3900E6939
:1015E000129944A4C92493087994CA480004C412E7
:1015F000A8D2D310D2242251ED2264148B2A0004E5
:10160000C51E09B3D3AB89D44432914C2413C944C9
:1016100032914C2413C9243389702E560204C61605
:10162000B9B2D3AB89D44432914C2413C924C2B982
:1016300058090004C70FF8D2D310F2F150E4A358B0
:10164000540104C80FA8D2D310321E8A1CC5A20AA6
:101650000004C92009B3D3104A8412A14428114AB6
:101660008492434428114A8412A1442811CEC54AC9
:101670000004CA17B9B2D3104A8412A1E410114A67
:101680008412A14438172B0104CB0FF8D2D310F2E7
:10169000A3E4ACEB542C0104CC0FA8D2D310729469
:1016A0009C55A762090004CD1A09B3D3104A84924D
:1016B000D164343944F4FF28114A8412E15CAC044B
:1016C00004CE13B9B2D3104A46934344FF51229C2F
:1016D0008B950004CF0BD416D4A088F45F0804D0F7
:1016E00013F812D411C9E860294DA445483C147977
:1016F0001404D113B812D411C9E8D0924C2C390873
:101700001925950004D213F812D41169874A692269
:101710002D42E2A1C8A30004D312B812D4116987E4
:10172000598462C941C828A90404D412D812D42B00
:10173000D124328948A7C348FF890004D5158812EF
:10174000D499484212994446A24964125144320144
:1017500004D612F812D411C9E8B0C358B349ACF397
:10176000210004D714B812D411C9E8509A48223C79
:1017700094E53251050004D813D812D4A28924422A
:10178000B1F2A1C8281169230104D9108812D42903
:10179000C9E4E243512292910004DA16F812D411FE
:1017A0006907D24412A1587C28324A44DA4800041E
:1017B000DB13B812D4116987956472F1A12811C99D
:1017C000480004DC1BF812D41169074924140945A8
:1017D0004251B1D12C2A1409454291501404DD150F
:1017E000B812D41169074924140945C56451A148A8
:1017F000280A04DE17F812D4116907D244122151C5
:101800002A9CCB89448948460204DF12B812D411BD
:10181000698759846219754E94580004E014D812EF
:10182000D43884A562A990AE4C244A4432120004F4
:10183000E114D892D33884A562A990AE4C244A44CE
:1018400032120004E213F812D438C42142DE4A9660
:10185000C3C45423320A04E311A812D438C4214269
:10186000B6924562AA110504E413F812D41169076F
:1018700009B9952C8789A946641404E511B812D4D6
:1018800011690709D94A1689A9461404E613F81202
:10189000D4116907D24412217F948864240004E79C
:1018A00012B812D4116907D244122147894846025E
:1018B00004E812D812D4A28924428E87224789488C
:1018C000460204E9118812D4A28924C24391281146
:1018D000C9480004EA15F812D4116907D24412214C
:1018E000E3A1C8512292910004EB14B812D41169FB
:1018F00007D24412E1A148948864240004EC16F84D
:1019000012D4116907D24412A158E5AC4C948864F2
:10191000240004ED12B812D41169875984629159D8
:101920004C94580004EE12F812D438C421423E4AB6
:10193000CE9A89120B0004EF14E892D338C42142E6
:101940003E4A442B62A24424230104F01208F3D33C
:1019500011690709F928396B264A2C0004F114F89B
:1019600092D311690709F92811AD888912918C0465
:1019700004F2130813D45211C941423E4ACE9A8947
:10198000120B0004F315F892D35211C941423E4A9A
:10199000442B62A24424230104F40FF812D41169E9
:1019A0000709F92839EB0104F50EB812D4116907BB
:1019B00009394ACE1A04F60DF8D2D3388CF59FC7F0
:1019C000AA0004F70CA8D2D3388CF53C560504F8CD
:1019D00017F812D4116907097934512414094542C2
:1019E000915024260104F915B812D4116907098908
:1019F000268A8422A1482812930004FA0EF9D0D333
:101A0000B3C975B5CAF5910A04FB0EA9D0D3B3C901
:101A1000558F728D540004FC17F8D2D31012252272
:101A20006D44AA944813691112C5A20A0004FD145A
:101A3000A8D2D3104A4432AA584A134984625105A5
:101A40000004FE15D812D4101225226D44D2214470
:101A5000A489B408890204FF128812D4104A4432BF
:101A6000AAEC10A28924420105000FD812D4D6C9CD
:101A70002223F22891890C05010FD812D4D6D34421
:101A8000A9C851225A11050217D910D4946B254ABE
:101A9000642209494292902424894E1600050317B6
:101AA000D910D494EB1A11D64412928424214924DB
:101AB00015916402050418D910D4994A8422B9B248
:101AC00074A624940825428950229D000505128998
:101AD00010D4218AE4D239445122944827000506C3
:101AE0001709B1D3228A142542B9583A87C82172FE
:101AF000ED73B11200050712B9B0D33109E5B2BADE
:101B00001C2297CFC54A00050817D910D4294A844A
:101B100012A14428114A8412FDBF546E1300050916
:101B2000108910D4294A8412A144FF853601050A80
:101B30001DD812D490C82432894C2293C824B20AEA
:101B40004542915024140945429A00050B1488120D
:101B5000D490C8243289AC429150241409690205FA
:101B60000C12D812D4A2892442B2262347894846AF
:101B700002050D118812D4A2892442B2C82811C9C5
:101B80004800050E16D812D438C4C47A914964129C
:101B90009944269149841300050F128812D438C441
:101BA000C42A32894C2293082700051015D812D474
:101BB000A289244276F9502A161225221909000515
:101BC000110F8812D4B108E935A95828B1000512BF
:101BD0001CF8D2D32BA9C82432894C2293C82432B2
:101BE000894C2293C86A44B1A802051315A8D2D320
:101BF0002BA9C82432894C2293C88862510500055C
:101C00001412D910D4B0E8FF9F4612FD978A84249D
:101C1000110515128910D4B0E84F23D14822A948E4
:101C2000481201051617D912D4A05144240949427B
:101C300092902812124922E55500051717C992D330
:101C400090882A12928444115144928A8422A26B71
:101C500007051812D812D4B228E96F12A1454D22F7
:101C6000D213010519138812D4B1A8502487094D45
:101C7000229348481300051A12E8F2D3A28924429D
:101C8000FE22215144B2BA00051B0FC892D39A28F4
:101C900015394A442B621D051C13D812D410F24585
:101CA000429150241449C954240A051D118812D4A4
:101CB000107291502414C961229200051E18D81286
:101CC000D410922234894C22928C4435916E129910
:101CD000444814051F128812D410456812D1A46418
:101CE00013A949840205201BF9D0D39B12254289F0
:101CF00050229408252489FE4B454292C865150060
:101D0000052113A9D0D39B1225420949A25F48128D
:101D1000B9AC0205221EF8D2D390C82432894C22D5
:101D200093C824B28B0A4542915024140945595452
:101D300001052316A8D2D390C8243289ECA242917F
:101D400050241465510500000000752911241FBEA0
:101D5000CFEFDAE0DEBFCDBF84B714BE0FB6F89484
:101D6000A895809160008861809360001092600067
:101D70000FBE12E0A0E0B1E0ECE2FFE502C005908A
:101D80000D92A630B107D9F728E0A6E0B2E001C075
:101D90001D92AA30B207E1F71EE0C6EADEE004C0F9
:101DA0002197FE010E94532FC53AD107C9F70E941F
:101DB000782A0C94942F0C940000662329F06A3042
:101DC00019F0862F90E008958FEF9FEF0895AF925E
:101DD000BF92CF92DF92EF92FF920F93CF93DF9358
:101DE000EC01DA017901942F9770E1E0F0E09F01B6
:101DF000092E01C0220F0A94EAF7522F6E018AE8D9
:101E0000C80ED11CF601808140E0823018F4422FC8
:101E1000813049F15D01F8EFAF22E8ADF9AD2881DD
:101E20003981D90150968C918A9D90018B9D300DFE
:101E30001124620F731FDF01A60FB71F01111AC013
:101E4000EA0EFB1E8C91842B85278D93AE15BF0562
:101E5000C9F7DF91CF910F91FF90EF90DF90CF9076
:101E6000BF90AF90089550E0D5CF440F550FE114C7
:101E7000F10479F33C91342B35273C939F5F9770A5
:101E8000E1E0EE1AF1089111F0CF2CAD3DADA20FBB
:101E9000B31FF6018081823028F4813009F051E0CF
:101EA00041E0E5CF51E0E3CF80E0089590E080E0AD
:101EB0000895E7E2F6E0DC012D913D914C912193EC
:101EC00031934193B6E0E738FB07A9F7089581E025
:101ED000809302080895FC0180912606882311F161
:101EE0003FB7F89482E08093E9002091F200822FBE
:101EF00090E01816190614F481E090E0882339F078
:101F0000289844E6409325064091F100408322231F
:101F100039F02091F200211103C02BE62093E80054
:101F20003FBF08958FEF9FEF08959B01DC01189646
:101F3000ED91FC9141E067E109942FB7F89483E0BB
:101F40008093E9009091E800892F807295FF04C08A
:101F50009091F20080E4891B2FBF089580911D06A7
:101F600081110DC082E08093190684E080931A06E7
:101F700010921C0610921B0681E080931D0689E1D9
:101F800096E0089581508F3008F047C0E82FF0E0C8
:101F9000E453F04F0C94532FE90FED0FDB0FE10FDB
:101FA000E50F0D100D100D10F00FF60FFA0FFE0FCC
:101FB00004100D100810809180008F7780938000AE
:101FC0000895809180008F7DF9CF80918000877F78
:101FD000F5CF84B58F7784BD089584B58F7DFBCF11
:101FE000809190008F778093900008958091900069
:101FF0008F7DF9CF80919000877FF5CF8091C000D1
:102000008F778093C00008958091C0008F7DF9CFB5
:102010008091C200877F8093C20008951F93CF9361
:10202000DF93282F30E0F901E951FE4F8491F90147
:10203000E853FE4FD491F901E755FE4FC491CC23EC
:10204000A9F0162F81110E94C20FEC2FF0E0EE0FC5
:10205000FF1FE556FE4FA591B4918FB7F894EC9110
:10206000111108C0D095DE23DC938FBFDF91CF9193
:102070001F910895DE2BF8CFCF93DF9390E0FC0102
:10208000E853FE4F249187559E4FFC01849188238D
:10209000D1F090E0880F991FFC01E357FE4FA59106
:1020A000B491FC01E556FE4FC591D491623071F4B4
:1020B0009FB7F8943C91822F809583238C93E8817D
:1020C0002E2B28839FBFDF91CF9108958FB7F8946F
:1020D000EC912E2B2C938FBFF6CF3FB7F8948091C5
:1020E000150690911606A0911706B091180626B510
:1020F000A89B05C02F3F19F00196A11DB11D3FBF40
:10210000BA2FA92F982F8827BC01CD01620F711D0E
:10211000811D911D42E0660F771F881F991F4A9508
:10212000D1F708958F929F92AF92BF92CF92DF9294
:10213000EF92FF926B017C010E946D104B015C01DC
:10214000C114D104E104F104B9F00E946D106819C2
:1021500079098A099B09683E73408105910580F3DE
:1021600021E0C21AD108E108F10888EE880E83E068
:10217000981EA11CB11CE4CFFF90EF90DF90CF9090
:10218000BF90AF909F908F9008952FB7F894609173
:1021900011067091120680911306909114062FBFBC
:1021A000089580E991E0089540919304509194043A
:1021B000209191043091920442175307B4F4909106
:1021C000E8009570E1F39091E80092FD19C08093CA
:1021D000F100809193049091940401968F73992754
:1021E000892B19F48EEF8093E800809193049091ED
:1021F00094040196909394048093930481E008954D
:1022000080E00895DF92EF92FF920F931F93CF9398
:10221000DF93D82E8A01EB017B01E40EF51ECE156B
:10222000DF0559F0D7FE12C0FE0184910E94D41040
:1022300021968111F4CF0FEF1FEFC801DF91CF91ED
:102240001F910F91FF90EF90DF9008958881EECF5E
:102250000F931F93CF93DF931F92CDB7DEB782E02A
:10226000898342E450E06AED70E080E80E94021148
:102270000E94AE0FDC0112960D911C910115110503
:1022800089F0D801ED91FC910280F381E02DBE012F
:102290006F5F7F4FC801099597FD04C0F801008565
:1022A0001185ECCF89810F90DF91CF911F910F9114
:1022B0000895615030F02091F100FC0120830196D7
:1022C000F8CF289884E68093250608958F929F92F0
:1022D000AF92BF92CF92DF92EF92FF920F931F9334
:1022E000CF93DF936C017B018A0180910B018823DE
:1022F00009F45CC080912606882309F457C08091B8
:10230000970480FF05C08091E00082608093E00028
:10231000E801B12C8AEFA82E93E0892E2AE3922EB1
:10232000209711F4BB20D9F10E949D0F81110AC0A2
:10233000AA94AA20D9F161E070E080E090E00E94C8
:102340009210EECF8C171D0611F00CF08C2F9FB75A
:10235000F8948092E9002091E80025FD02C09FBF1B
:10236000DFCF282F30E0C21BD30BF701815020F0C4
:1023700041914093F100FACFE20EF31EBB2021F011
:102380009092E800B12CEBCF8091E80085FDE7CF7B
:102390009092E800BB24B394209709F3F3CF5D98A3
:1023A00084E680939604101611063CF081E090E0DC
:1023B000F6019383828310E000E0C801DF91CF91A2
:1023C0001F910F91FF90EF90DF90CF90BF90AF9053
:1023D0009F908F900895CF93DF931F92CDB7DEB774
:1023E0006983DC01ED91FC910280F381E02D41E0F5
:1023F00050E0BE016F5F7F4F09950F90DF91CF9145
:1024000008950F931F93CF93DF938C01D0E0C0E02A
:10241000F801EC0FFD1F6491662341F087E896E018
:102420000E94EB11892B11F02196F2CFCE01DF91A2
:10243000CF911F910F91089583E08093E9008091DF
:10244000F200882319F08AE38093E80008950E943F
:102450009D0F90E00895CF93DF931F92CDB7DEB725
:10246000FC018485958597FD08C02FEF3FEF3587E8
:1024700024870F90DF91CF910895CE0101960E949D
:102480006B0F019719F4898190E0F3CF8FEF9FEFE5
:10249000F0CF0F931F93CF93DF931F92CDB7DEB78B
:1024A0008C01FC018485958597FF0BC0CE010196B8
:1024B0000E946B0F019771F4898190E0F801958774
:1024C0008487F801848595850F90DF91CF911F91C6
:1024D0000F9108958FEF9FEFF1CFFC0184859585D3
:1024E00097FD0BC09FB7F89482E08093E90080913C
:1024F000F2009FBF90E0019608959FB7F89482E0A4
:102500008093E9008091F2009FBF90E00895DC0184
:102510001A96ED91FC9130E020E00994DC011696CA
:10252000ED91FC9130E020E040E069E10994DC01AC
:102530001696ED91FC9130E020E040E068E10994CE
:102540009A01DC011696ED91FC91462F67E1099402
:10255000EF92FF920F931F93CF93DF931F92CDB70C
:10256000DEB77C018B01D8016C91673129F150F401
:102570006531A0F40F90DF91CF911F910F91FF90E3
:10258000EF9008956A3118F16E3FA1F7F80141818B
:10259000498369E2C7010E9487120BC0F80141819B
:1025A0004983D7011696ED91FC9130E020E0C701F8
:1025B00009950E5F1F4FD7CFF80181818983AE0146
:1025C0004F5F5F4F61E0C7010E94A012F2CF0F5F23
:1025D0001F4FD7011696ED91FC9130E020E040E0CE
:1025E000C7010995C0CF462FDC011696ED91FC91ED
:1025F00030E020E066E10994462FDC011696ED916B
:10260000FC9130E020E065E10994EF92FF920F9396
:102610001F93CF93DF93EC01042F79016D3009F400
:1026200046C050F46B30C9F1693009F49FC06A307C
:1026300009F465C080E05CC06E3009F44BC06F30B7
:1026400099F70E949712F7011381110F110F110FC3
:102650006C89160F60E4CE010E94FC12612F629516
:102660006F706061CE010E94FC12612F6F70CE010D
:102670000E94F312F7016481606BCE010E94F31295
:10268000F701408151816281660F660F660FCE01AE
:102690000E94A0120150A1F727C061E271E044231B
:1026A00011F06CE171E0CE010E94A81220C041112E
:1026B00009C065E171E00E94A812E881F981828970
:1026C0008C8B15C06EE071E00E94A812E881F98140
:1026D0008389F6CF0E94971261E8CE010E94FC1216
:1026E000602FCE010E94F312CE010E948E1281E073
:1026F000DF91CF911F910F91FF90EF900895EA85A0
:10270000FB8530E020E040E068E2CE010995EE81F3
:10271000FF8130E020E040E064E1CE01099541E036
:102720006BE4CE010E948712E881F981448169E25D
:10273000CE010E94871240E06BE4CE010E94871216
:10274000E881F981448169E2CE010E94871241E06B
:102750006BE4CE010E948712E881F981458169E22C
:10276000CE010E94871266E271E09DCF8BE591E079
:102770009983888382E0A4CFDC011896ED91FC91C7
:1027800030E020E040E069E10994DC011896ED9129
:10279000FC9130E020E040E068E10994CF93DF93C2
:1027A0001F92CDB7DEB76983BE016F5F7F4F0E9476
:1027B000950F0F90DF91CF910895EF92FF921F93A5
:1027C000CF93DF93EC01162F7A010E94C51360E4CA
:1027D000CE010E94CE13E885F9859701412F67E16C
:1027E000CE010995CE01DF91CF911F91FF90EF901F
:1027F0000C94BC13EF92FF921F93CF93DF93EC01E5
:10280000142F7901663181F138F4643109F44BC039
:10281000653179F080E022C06831C9F150F1693149
:10282000C9F780919004882391F1CE010E94BC13D6
:102830002EC080919004882319F0CE010E94BC1311
:10284000CE010E94C51360E0CE010E94CE13612F1D
:10285000CE010E94CE1381E080939004DF91CF914E
:102860001F91FF90EF900895642F0E94CE1381E096
:10287000F5CF80919004882319F0CE010E94BC13FB
:10288000A701193138F4612FCE010E94DD13109297
:102890009004EDCF68E1CE010E94DD13185188E16C
:1028A000E80EF11CEDCF8E898F3F11F488E78E8BF7
:1028B000E885F9859701412F64E1CE01DF91CF9141
:1028C0001F91FF90EF900994FC016623D9F16A30C3
:1028D000C9F1808D811125C06C3F48F085E0808F63
:1028E000617070E0738B628B2EEF3FEF29C0683F01
:1028F00020F084E0808F6370F4CF603F20F083E0AD
:10290000808F6770EECF603E20F082E0808F6F7026
:10291000E8CF262F30E0603C98F081E0808F6F7127
:10292000E0CF8150808F2289338996E0220F331FB8
:102930009A95E1F76F73262B338B228B8111D4CFBD
:10294000C90108952FEF3FEFFBCF0F93FC01E05C2F
:10295000FF4F0190F081E02D4E1B5F0BDC01D49600
:10296000ED91FC9109950F910895CF93DF93FC01B0
:10297000A081B18182AD90E09C0143E0220F331F22
:102980004A95E1F737AF26AF50962C91509748E023
:10299000249F9001112435AF24AF23AD30E0B9015D
:1029A00053E0660F771F5A95E1F7EF01C05CDF4FE8
:1029B0007983688351964C915197E901C80FD91FCB
:1029C00050E04C175D0718F4CA01821B930BEF010E
:1029D000CE5BDF4F79836883229623E0880F991FAF
:1029E0002A95E1F7860F971F99838883229654963C
:1029F0008D919C91559799838883E85BFF4F5696FC
:102A00008D919C9191838083DF91CF9108950F9355
:102A10001F93FC01E25BFF4F0190F081E02DDC0190
:102A2000A05BBF4F0D90BC91A02D4A175B0740F4EF
:102A3000E017F10748F00417150730F080E019C0DF
:102A4000E017F107C0F3FACFFC01E65BFF4F4081CE
:102A50005181845B9F4FFC018081918168177907C8
:102A600058F481E04217530720F081E0261737071A
:102A700028F71F910F91089542175307B0F3DECF47
:102A80002F923F924F925F926F927F928F929F927E
:102A9000AF92BF92CF92DF92EF92FF920F931F936C
:102AA000CF93DF93CDB7DEB72A970FB6F894DEBF8A
:102AB0000FBECDBF9A878987865B9F4F9A83898394
:102AC000FC0111821082E985FA85EA5BFF4F4080A4
:102AD000518029853A85245B3F4F3C832B83F90144
:102AE00051824082E985FA85EE5BFF4F208031807C
:102AF00029853A85225B3F4F3E832D83F901318240
:102B00002082E985FA85EC5BFF4F60807180298522
:102B10003A85205B3F4F38872F83F90171826082AD
:102B2000E985FA85E85AFF4FE080F180E985FA856A
:102B3000EC5AFF4FA080B180E985FA85EA5AFF4F31
:102B4000C080D180E985FA85EE5AFF4F8080918060
:102B500087019501A601B40189859A850E94071510
:102B600029853A852C573F4F3A87298781111BC009
:102B7000F90110822A960FB6F894DEBF0FBECDBFC2
:102B8000DF91CF911F910F91FF90EF90DF90CF9049
:102B9000BF90AF909F908F907F906F905F904F907D
:102BA0003F902F90089581E0E985FA858083811414
:102BB000910421F0E981FA8191828082A414B50404
:102BC00020F4EB81FC81B182A0822C143D0420F41E
:102BD000ED81FE81D182C082E614F70458F6EF81C0
:102BE000F885F182E082C6CF0F93CF93DF93E02F79
:102BF000DC01AC57BF4FFC91FF2309F460C02115E5
:102C0000310509F45CC02230310538F0023009F09A
:102C10004AC06F5F7F4F621B730B0E2F0170E0FD88
:102C200052C0FC01E25BFF4F0190F081E02D4E1796
:102C30005F0708F444C0FC01E05BFF4F0190F081A6
:102C4000E02D4E175F07D8F5FC01E45BFF4F0190C4
:102C5000F081E02DDC01A65BBF4F0D90BC91A02D53
:102C6000260F371F2617370738F56E177F0718F519
:102C70009F0121503109A217B30708F56A177B0796
:102C800008F4BD012E173F0708F4F901E61BF70B06
:102C9000EC01AEA9BFA914960D90BC91A02D9F0187
:102CA000FD0109950CC0033009F0B7CF4F5F5F4FAE
:102CB000421B530BB2CFBD016E177F07E0F2DF91CD
:102CC000CF910F910895FC01E65BFF4F0190F081D9
:102CD000E02D6E177F0798F3FC01E45BFF4F019036
:102CE000F081E02D6E177F0750F7FC01E05BFF4F8E
:102CF0000190F081E02DDC01A25BBF4F0D90BC91F3
:102D0000A02D240F351F24173507A8F44E175F0791
:102D100088F49F0121503109A217B30780F64A17A2
:102D20005B0708F4AD012E173F0708F4F901E41B17
:102D3000F50BAECFAD014E175F0708F6EDCF213092
:102D400069F038F0223079F0840F911D47FD9A9593
:102D50000895860F911D67FD9A950895841B91092A
:102D600047FD93950895861B910967FD93950895F6
:102D7000213069F038F0223079F0861B910967FD27
:102D800093950895840F911D47FD9A950895860F98
:102D9000911D67FD9A950895841B910947FD9395B0
:102DA00008953F924F925F926F927F928F929F927F
:102DB000AF92BF92CF92DF92EF92FF920F931F9349
:102DC000CF93DF937C01162F442EEC01C25ADF4FC4
:102DD0005E806F806C018AE8C80ED11C78847518FB
:102DE000312E711608F4372C8C809D800E85202F93
:102DF000462D652D8A819B810E949F165C01202FA4
:102E0000462D652DC4010E94B816AC01442079F00E
:102E10008C85F6018083232D30E0B501C7010E9427
:102E2000F415171548F017196394512CD7CF8B85DB
:102E30008111F7CF8D85EDCF150D1E836F82DF9148
:102E4000CF911F910F91FF90EF90DF90CF90BF90A7
:102E5000AF909F908F907F906F905F904F903F903A
:102E60000895DC011A964C911A97ED91FC911197F7
:102E7000249130E0042E02C0359527950A94E2F79C
:102E8000842F860F883068F031961196FC93EE936C
:102E9000E49198E0941B01C0EE0F9A95EAF72E2B6F
:102EA00088501A968C938FEF9FEF01C0880F6A9518
:102EB000EAF78095822308950F931F93CF93DF93B2
:102EC0008C01EC01C25ADF4F798368831A86FC01BA
:102ED000EF58FF4F6081CE010E9431178887F801BB
:102EE000EE58FF4F6081CE010E9431178987F801AB
:102EF000E657FF4F90819C8781E0911180E08D879C
:102F0000DF91CF911F910F910895CF93C62F0E940B
:102F10003117C15021E030E001C0220FCA95EAF715
:102F2000821BCF910895FC01E60FF11D849190E082
:102F3000982F88273196E4918E0F911D0895EF9276
:102F4000FF920F931F93CF93DF93FC01E65AFF4F3D
:102F500020813181295E3F4F6F3F710509F048F5AF
:102F600061367105D8F080589F4FFC0180819181B6
:102F7000280F391FC9010196FC014491442309F42B
:102F800047C0F90144914617170671F40196DF9185
:102F9000CF911F910F91FF90EF90089561347105CB
:102FA00048F382589F4FE1CFFC018491280F311DD7
:102FB000E1CF8B01FC01EE57FF4FC081D181C20FE1
:102FC000D31F7E0160E0C7010E949317C80FD91F6D
:102FD00062E0C7010E949317F4E0EF0EF11C801726
:102FE000910780F3FE01849190E0982F8827319615
:102FF000E4918E2B009761F00817190719F4CE01A0
:103000000396C5CFFE013296E491CE0FD11DEACFD3
:1030100090E080E0BCCFCF92DF92FF920F931F939E
:10302000CF93DF931092DE07109290076C0180EC33
:10303000F82E10E000E0D0E0C0E0F60161916F01F1
:10304000E0917A07F0917B0788E797E009958F3F39
:10305000980789F18E3F2FEF920779F3BC0188E73B
:1030600097E00E949F17009721F1BC0188E797E045
:103070000E945C176091EB0786ED97E00E94851730
:10308000809300086091EC0786ED97E00E94851719
:103090006091ED0786ED97E00E948517082F880F55
:1030A000110B80ECF81202C0F0900008C00FD11F85
:1030B000C4CF80E0F3CF2091DE07222399F08091E6
:1030C0000008022E000C330B280F311D87FD3A95A6
:1030D000C20FD31FC01BD10B1F1424F4CF0DD11D61
:1030E000F7FCDA95CE01DF91CF911F910F91FF9000
:1030F000DF90CF9008958F929F92AF92BF92CF9220
:10310000DF92EF92FF920F931F93CF93DF93EC0127
:103110007B018A016901FC01E459FF4F8081813004
:1031200009F46FC008F462C0823009F475C08330BE
:1031300009F47DC0FE01E05AFF4FF182E082329631
:1031400011830083B601CE010E949F17009709F4F6
:10315000FFC07E012EE5E20EF11CBC01CE010E94F3
:103160005C17FE01E959FF4FB0803C966081C701B2
:103170000E948517882EFE01EC58FF4F6081C70121
:103180000E948517082FFE01EB58FF4F6081C70191
:103190000E948517A82EF701908419140CF090C096
:1031A00016850B0D0195212F402F682D828193816B
:1031B0000E949F166C01F70193838283212F402F79
:1031C000682D848195810E94B816AC01F701958322
:1031D0008483113009F484C0A8F1123009F491C03D
:1031E000133009F4A4C08C01960136C0FE01E45AE4
:1031F000FF4F0190F081E02DCE010995080F191FB6
:1032000099CFFE01E45AFF4F0190F081E02DCE01ED
:103210000995E81AF90A8ECFFE01E45AFF4F019092
:10322000F081E02DCE010995081B190B83CFFE011B
:10323000E45AFF4F0190F081E02DCE010995E80E90
:10324000F91E78CF9601290D311D97FC3A958C0116
:103250000B0D111DB7FC1A95B601CE010E94071582
:10326000882371F1F701168217828E0101591F4FD1
:103270006E01F0E7CF0ED11CF8016081C7010E94FA
:103280003117882EF6016081C7010E943117982EF0
:1032900040E0682DCE010E94D11641E0692DCE019B
:1032A0000E94D11661E0C7010E9431178111F0CF51
:1032B000F70187818B1504F3C657DF4F8485888318
:1032C0008A2DAA0C990BDF91CF911F910F91FF903E
:1032D000EF90DF90CF90BF90AF909F908F90089528
:1032E00081E090E08B199109B7FC939596012F5FCF
:1032F0003F4F8A01090D111D97FC1A95C80ED91E62
:10330000ABCF81E090E0BC016919710997FC73951E
:1033100096012F5F3F4F8B199109B7FC93958A0156
:103320000F5F1F4F480F591FC60ED71E95CF96012E
:103330002B0D311DB7FC3A9581E090E08919910978
:1033400097FC93958A010F5F1F4F480F591F84CF39
:1033500090E080E0B8CFCF92DF92EF92FF920F9390
:103360001F93CF93DF938C01109290077B01D12C98
:10337000C12CD0E0C0E0F70161917F01E0917A07B4
:10338000F0917B0788E797E009958F3F980719F13F
:103390008E3F2FEF920779F39C01A801BE0188E7C9
:1033A00097E00E947B182091E407213059F038F013
:1033B000223059F0233061F0C80ED91EDCCFC80F7F
:1033C000D91FFACF080F191FF7CFC81BD90BF4CF9D
:1033D000081B190BF1CFC601DF91CF911F910F91FF
:1033E000FF90EF90DF90CF900895CF93DF93EC01A3
:1033F0006BAFEEA9FFA90190F081E02D0995EEA930
:10340000FFA90280F381E02DCE01DF91CF910994D5
:10341000AF92BF92CF92DF92EF92FF920F931F93E2
:10342000CF93DF9300D000D01F92CDB7DEB78C01D1
:10343000DC01DA96AC90DA97DB96EC90DB97ED91B5
:10344000FC91B188FE2CD12CC12CD801ED91FC91BE
:1034500011978089D8962D913C911C82FD828B8397
:10346000B8E08B9FC00111248C9DA0018D9D500D53
:103470009C9D500D1124240F351F3A832983D801B8
:103480001496ED91FC919E012F5F3F4F41E06FE05C
:10349000C8010995F3948F2D8E198A1528F4BFEF72
:1034A000CB1ADB0AFB1488F20F900F900F900F904D
:1034B0000F90DF91CF911F910F91FF90EF90DF90D0
:1034C000CF90BF90AF900895089508950F931F93E4
:1034D000CF93DF93EC01862F642F8C32B8F48A32BD
:1034E000D8F5883239F18932E9F1803408F472C0B4
:1034F000982F9F73FE01E90FF11D868D8F3F61F1BB
:10350000903108F045C00E940E1026C08D3281F126
:1035100060F394EB980F923040F78F73C80FD11D72
:103520008E8D411133C00E940E1061E08E8D0E947D
:103530003C1012C08E01025E1F4FD0E0F801819155
:103540008F018F3F31F061E0D03108F062E00E94DE
:103550003C10DF5FD63191F781E0DF91CF911F9171
:103560000F91089570E090E080E00E949210F4CFF7
:1035700085E090E0433010F082E090E0880F991FE2
:10358000880F991F05970197F1F7E6CF62E0CFCF3B
:10359000282F30E0F901E951FE4F8491F901E853F9
:1035A000FE4F0491F901E755FE4F1491112379F074
:1035B00081110E94C20FE12FF0E0EE0FFF1FE453D4
:1035C000FF4FA591B491EC910E2381E009F480E0C6
:1035D000898FC2CF80E0C1CF20911704260F3327F7
:1035E000331F21323105ECF420916604FC0190E098
:1035F00080E0243069F082E00895A09117042191C1
:10360000AC0149505C4FA40FB52FB11D2C9301960E
:10361000861798F380911704680F6093170480E071
:10362000089581E008951092660481E08093650416
:103630001092400461E082E00E940E1061E083E09D
:103640000E940E10E9EBF0E080818E7F8083808104
:103650008D7F808388E48093B80085E48093BC00EC
:103660000895CF93DF9391E09093F6038823B9F008
:10367000C091B800D091BA008091BC008A7B809341
:10368000BC0060E082E00E940E1060E083E00E94D7
:103690000E100E94131BD093BA00C093B800DF91A4
:1036A000CF9108950895E0913F0480913E04E8177A
:1036B00030F4F0E0EA52FC4F808190E008958FEF03
:1036C0009FEF089590913F0480913E042FEF3FEFCC
:1036D000981748F4E92FF0E0EA52FC4F208130E0DF
:1036E0009F5F90933F04C901089580913E0490919B
:1036F0003F04891B990B0895CF92DF92EF92FF92BE
:103700000F931F93CF93DF937C01CB018A0120910C
:103710006C04222389F0EB016B01C40ED51ECC157D
:10372000DD0569F06991D701ED91FC910190F0817F
:10373000E02DC7010995F3CF642F0E94EC1AC80150
:10374000DF91CF911F910F91FF90EF90DF90CF907D
:103750000895CF92DF92EF92FF920F931F93CF9332
:10376000DF93EC01962F683109F44BC0B901993110
:1037700030F49431C9F0973189F080E006C0993176
:1037800009F461C09032C9F781E0DF91CF911F91B8
:103790000F91FF90EF90DF90CF90089550E087ED6C
:1037A00096E00E947C1BF0CF8C859D85AE85BF8501
:1037B000892B8A2B8B2B71F4E881F981A585B0E0E8
:1037C00020EA36E841E050E00E94032F6C877D87B5
:1037D0008E879F8710923F0410923E0410926D04D2
:1037E00010928F040E94131B84E69AE190933D048B
:1037F00080933C0485E69AE190933B0480933A04DD
:10380000C3CF2C853D854E855F8560E074E284EFF3
:1038100090E00E940E2F205131094109510956951F
:103820004795379527952093B8008E8990E0959518
:10383000879591E090936C0480938E0410926D04B0
:1038400010928F04A1CFD0918F04D13208F093C091
:10385000C0918E040E946D106B017C018091660402
:10386000811164C082E08093660481E080936504E6
:103870008FEF8093640410926304D0936204AEE6E9
:10388000B4E0E2E4F4E080E0D8137CC0109241049C
:1038900080914104CC0FC82BC09341048091400417
:1038A000813009F073C0109240040E946D106B01CA
:1038B0007C01809141048093BB00809168049091C9
:1038C0006904A0916A04B0916B04892B8A2B8B2B1D
:1038D00099F00E946D100091680410916904209184
:1038E0006A0430916B046C197D098E099F090617D3
:1038F000170728073907D8F18091BC0083FDD9CF7D
:1039000085EC8093BC000E946D106B017C0180915E
:1039100066048230E9F1809164048F3F61F1809107
:103920006404803241F18091640425C08091680470
:1039300090916904A0916A04B0916B04892B8A2B41
:103940008B2B09F48BCF0E946D10009168041091AD
:10395000690420916A0430916B046C197D098E0909
:103960009F09061717072807390708F077CF8091B6
:1039700067040E94311B10926D0410928F04109204
:103980006C0402CF9D9191938F5F7ECF85EEB9CF6E
:103990008091680490916904A0916A04B0916B04CD
:1039A000892B8A2B8B2B09F4B2CF0E946D100091CA
:1039B00068041091690420916A0430916B046C19B9
:1039C0007D098E099F09061717072807390708F090
:1039D0009ECFCDCFCF93DF931F92CDB7DEB7698354
:1039E00020916C042223F9F020918F04203258F0AA
:1039F00021E030E0FC013383228390E080E00F90EF
:103A0000DF91CF91089580916D04E82FF0E0E259A5
:103A1000FB4F998190838F5F80936D0480938F0417
:103A200081E090E0ECCF61E0CE0101960E94EC1ABB
:103A3000F7CFEF92FF920F931F93CF93DF9300D0B6
:103A40001F92CDB7DEB719821A821B82662329F135
:103A5000FC01389610E000E0E62EF12C21912223A3
:103A6000B9F042814423A1F030E02F5F3F4FD701EE
:103A70000E94302FA42FB0E011969B01AC010E9450
:103A8000032FA1E0B0E0AC0FBD1FA00FB11F8C93BE
:103A90000F5F1F4F0330110509F769817A818B8110
:103AA0000F900F900F90DF91CF911F910F91FF908A
:103AB000EF90089581E090E008950F931F93CF93C6
:103AC000DF932091D3022F5F322F37703093D302D0
:103AD00020FF2BC020E831FD2064347009F0206203
:103AE000205FFC01EC01239600E011E0678566236E
:103AF00029F070E0C8010E943F2F6F5F6187822F1D
:103B0000869F080E8827811D1124811110C01682FE
:103B1000662311F0615061873196EC17FD0731F78C
:103B2000DF91CF911F910F91089520E0D4CF815064
:103B30008683EECF4F925F927F928F929F92AF9249
:103B4000BF92CF92DF92EF92FF920F931F93CF938A
:103B5000DF932C01EB010E946D10F201278D30A143
:103B6000621B730B68317140B0F3F8948A819B81BA
:103B7000181619060CF0CDC1E881F9816BB1862EBB
:103B8000689487F83BB13F773BB9DA848F812D2D5C
:103B9000281B822F2F834C85042E000C550BAA81E5
:103BA000BB817889FF84E9887F5FF394E3949E81E9
:103BB0009884B984AB841181C12C6C2D0C2D2C2DD3
:103BC0002181112788942111280F08F42FEF819566
:103BD000889470FD120F1795889471FD120F179538
:103BE000889472FD120F1795889473FD120F179524
:103BF000889474FD120F1795889475FD120F179510
:103C0000889476FD120F1795889477FD120F1795FB
:103C10008894622F7111612F8D0D162F002C8BB897
:103C200000C017FF3BB920816627889400C000C000
:103C3000002C3BB92111290F00C0002C8BB800C00B
:103C400016FF3BB908F42FEF9195889400C000C08F
:103C5000002C3BB9F0FC620F00C0002C8BB800C0F8
:103C600015FF3BB967958894F1FC620F00C000C056
:103C7000002C3BB96795889400C0002C8BB800C01D
:103C800014FF3BB9F2FC620F6795889400C000C036
:103C9000002C3BB9F3FC620F00C0002C8BB800C0B5
:103CA00013FF3BB967958894F4FC620F00C000C015
:103CB000002C3BB96795889400C0002C8BB800C0DD
:103CC00012FF3BB9F5FC620F6795889400C000C0F5
:103CD000002C3BB9F6FC620F00C0002C8BB800C072
:103CE00011FF3BB967958894F7FC620F00C000C0D4
:103CF000002C3BB96795889400C0002C8BB800C09D
:103D000010FF3BB9122FF110162F9B0D00C000C001
:103D1000002C3BB900C000C0002C8BB800C017FFBE
:103D20003BB922816627889400C000C0002C3BB9B3
:103D30002111290D00C0002C8BB800C016FF3BB923
:103D400008F42FEFE40FF51F00C000C0002C3BB9B2
:103D5000E0FC620F00C0002C8BB800C015FF3BB91F
:103D600067958894E1FC620F00C000C0002C3BB94D
:103D70006795889400C0002C8BB800C014FF3BB935
:103D8000E2FC620F6795889400C000C0002C3BB92C
:103D9000E3FC620F00C0002C8BB800C013FF3BB9DE
:103DA00067958894E4FC620F00C000C0002C3BB90A
:103DB0006795889400C0002C8BB800C012FF3BB9F7
:103DC000E5FC620F6795889400C000C0002C3BB9E9
:103DD000E6FC620F00C0002C8BB800C011FF3BB99D
:103DE00067958894E7FC620F00C000C0002C3BB9C7
:103DF0006795889400C0002C8BB800C010FF3BB9B9
:103E0000122FE110162F919400C000C0002C3BB976
:103E10009A0C00C000C08BB800C017FF3BB92181CD
:103E20006627889400C000C0002C3BB92111280FE0
:103E300000C0002C8BB800C016FF3BB908F42FEF70
:103E40008195889400C000C0002C3BB970FD620FC2
:103E500000C0002C8BB800C015FF3BB96795889453
:103E600071FD620F00C000C0002C3BB967958894BB
:103E700000C0002C8BB800C014FF3BB972FD620F6C
:103E80006795889400C000C0002C3BB973FD620F99
:103E900000C0002C8BB800C013FF3BB96795889415
:103EA00074FD620F00C000C0002C3BB96795889478
:103EB00000C0002C8BB800C012FF3BB975FD620F2B
:103EC0006795889400C000C0002C3BB976FD620F56
:103ED00000C0002C8BB800C011FF3BB967958894D7
:103EE00077FD620F00C000C0002C3BB96795889435
:103EF00000C0002C8BB800C010FF3BB9122F71110D
:103F0000162F8D0D00C000C0002C3BB9119709F091
:103F100086CEEA81FB812EE130E0DF010E94592F3D
:103F200030E020E0A901AAE9EA9F0E0E411DFA9FA8
:103F3000400D511D11244F0F511DDC01CB01840F89
:103F4000951FA11DB11D893E43E09407A105B10550
:103F500008F434C0885E9340A109B10942E0B695E7
:103F6000A795979587954A95D1F747E0849F080EC6
:103F7000211D949F200D311D1124290F311D6091A9
:103F8000D20270E0860F971F820F931F4091110697
:103F9000509112066091130670911406292F332751
:103FA000420F531F611D711D40931106509312065D
:103FB00060931306709314068093D20278940E9443
:103FC0006D10F20170A3678FDF91CF911F910F9158
:103FD000FF90EF90DF90CF90BF90AF909F908F9029
:103FE0007F905F904F900895579A08956F927F92B7
:103FF0008F92CF92DF92EF92FF920F931F93CF9306
:10400000DF93CDB7DEB762970FB6F894DEBF0FBE71
:10401000CDBF8C016B017A01622F0E94191D3B01FB
:10402000882ED8011E962C91C701F7FE04C0882760
:1040300099278E199F09DA82C9829C838B839E837C
:104040008D83688A798A8A8A213049F5CE01019662
:104050000E945D1D83E08D871F861E86F7FE02C0CD
:104060008DEF8D87D801ED91FC910088F189E02DCD
:10407000BE016F5F7F4FC801099562960FB6F89435
:10408000DEBF0FBECDBFDF91CF911F910F91FF908B
:10409000EF90DF90CF908F907F906F9008951C8667
:1040A0001B861A86198618861F82D4CFCF92DF927C
:1040B000EF92FF920F931F93CF93DF93CDB7DEB7AD
:1040C00062970FB6F894DEBF0FBECDBF8C016B01B7
:1040D0007A01622F0E94191D9B01482FD8011E965C
:1040E0008C91DA82C982FC82EB82FE82ED82288B7F
:1040F000398B4A8B813009F5CE0101960E945D1DF6
:104100001D861F861E86D801ED91FC910088F189DD
:10411000E02DBE016F5F7F4FC801099562960FB613
:10412000F894DEBF0FBECDBFDF91CF911F910F91ED
:10413000FF90EF90DF90CF9008951C861B861A8623
:10414000198618861F82DCCFCF92DF92EF92482F1C
:10415000440F440F440F28E1829FC001112430E036
:1041600020E050E044555F4FFA01E20FF31FE49165
:10417000F0E0BF01660F771FE60FF71FE95DF94F0B
:10418000D901AA0FBB1FA20FB31FA80FB91FAE5CA6
:10419000BD4FCD90DD90EC90C082D182E2822F5F46
:1041A0003F4F2830310501F7EF90DF90CF90089511
:1041B000EF92FF920F931F93CF93DF9398E1899F24
:1041C000F0011124EE5CFD4F18E0DB018C9183328D
:1041D00011F46F5F7F4F9B017B01B6E0EB0EF11C8A
:1041E00080E090E0DC01B9012F5F3F4FEB01588187
:1041F00040ED450F4A3028F0052F0F7D0154063061
:10420000A0F464E0880F991FAA1FBB1F6A95D1F71D
:104210004A3030F04FEB450F4630A8F449EC450FDB
:10422000842BB901E216F306F1F6A0839183828311
:10423000115033961111C9CFDF91CF911F910F917A
:10424000FF90EF9008954FE9450F463010F449EA8A
:10425000E6CF40E0E5CF9C0170E0FC01E60FF71FE0
:1042600090819923E9F097FF0CC0892F807E803CD4
:1042700051F0892F807F803EA9F0987F84E0903FA5
:1042800019F091E00DC082E06F5F7F4FF901E60FFA
:10429000F71F91E02191222319F09F5F8913FACF34
:1042A000892F089583E0F0CFEF92FF920F931F9331
:1042B000CF93DF93C82FD0E0AE01E6E0440F551F47
:1042C000EA95E1F790E080E0E82FDB012D91BD0158
:1042D000222359F0FC01E40FF51FE451FD4F208328
:1042E00001968F33910581F7EFE38E0146E0000FD1
:1042F000111F4A95E1F704511D4FE00FF12FF11DF9
:104300001082F12CE12CF801EF0DF11D8081882342
:1043100049F06F2DC8010E942B21882319F0F80E57
:10432000E394F1CFFE01E751FD4FE08284E694E192
:1043300090937B0780937A07C8010E940B18FE01B7
:10434000EE0FFF1FED51FD4F91838083FE01E05280
:10435000FD4F10820E94C510CC0FDD1FCC0FDD1F5A
:10436000CC52DD4F688379838A839B83DF91CF9121
:104370001F910F91FF90EF900895CF92DF92EF92EF
:10438000FF920F931F93CF93DF936C01EB017B019F
:10439000E40EF51E10E000E0CE15DF0561F0699136
:1043A000D601ED91FC910190F081E02DC6010995B7
:1043B000080F191FF1CFC801DF91CF911F910F9105
:1043C000FF90EF90DF90CF900895CF92DF92EF9221
:1043D000FF920F931F93CF93DF93EC016C0124E0C6
:1043E000C20ED11CFC01E057FF4F0190F081E02D7F
:1043F000C60109958E3FEFEF9E07D8F48E010C564B
:104400001F4FF801408151817E01F2E9EF0EF11C4E
:10441000F701608171819C01C6010E947B18C0591F
:10442000DF4F28812130C1F078F02230B9F02330FD
:10443000E9F081E090E0DF91CF911F910F91FF9023
:10444000EF90DF90CF900895F70120813181820FA6
:10445000931F91838083EDCFF801F7CFF70120817F
:104460003181281B390B31832083E3CFF801F7CF4B
:1044700090E080E00895FC0184819581089508957D
:1044800090E080E00895FB0101900020E9F731976A
:10449000AF01461B570B0C9466110E94742FFC0150
:1044A000A081B18150962C9182AD38E0839FC001EC
:1044B0001124289FA001299F500D112470E060E075
:1044C00080AD91AD0C94792F1F93CF93DF93EC01C6
:1044D0000E94081A1BAD8AAD180FE881F981818905
:1044E000181768F0EC81FD8130E020E040E060E1E9
:1044F000CE01099580E0DF91CF911F910895FE01D3
:10450000E557FF4F8081882319F0CE010E944F228A
:10451000612FCE010E94F51981E0EDCFCF93DF939B
:10452000EC01FC01E557FF4F8081882319F0CE0193
:104530000E944F2260E0CE01DF91CF910C94F519DB
:104540002F923F924F925F926F927F928F929F92A3
:10455000AF92BF92CF92DF92EF92FF920F931F9391
:10456000CF93DF93CDB7DEB72A970FB6F894DEBFAF
:104570000FBECDBF43EEE42E42E0F42E59EEC52E21
:1045800052E0D52EAA24A394B12CD601ED916D0151
:10459000E983EE2391F1D7018D919C9181389105AA
:1045A00060F10E94C5108501000F111F000F111F3F
:1045B00000531D4FF8014080518062807380641960
:1045C0007509860997096C32714081059105A8F03B
:1045D000F501E152FD4F808190E0019629812C5F29
:1045E000622F70E00E943F2F80830E94C510D80187
:1045F0006D937D938D939C931397BFEFAB1ABB0A7A
:10460000E2E0EE0EF11CF4E0AF16B10409F0BDCF0C
:1046100088E797E00E948E2286ECC82E84E0D82E90
:104620000CEE12E093EE892E92E0992E29EE32E004
:104630003C832B83EE24E394F12CAB81BC814D9021
:10464000BC83AB83442031F0F401808191818138B7
:104650009105D0F5D6018C91E4E6F4E1F0937B0767
:10466000E0937A07B80190E00E94AB193FEFE31A9C
:10467000F30A8FEFC81AD80A005C1F4F92E0890E28
:10468000911CA4E0EA16F104C1F688E797E00E94C5
:1046900064228111C1CF2A960FB6F894DEBF0FBEF7
:1046A000CDBFDF91CF911F910F91FF90EF90DF90E1
:1046B000CF90BF90AF909F908F907F906F905F90C2
:1046C0004F903F902F90089520900C01F701E152F8
:1046D000FD4F8081B12CA12C712C282F30E03E831E
:1046E0002D8384E0840DA82FB0E0B887AF83872D99
:1046F00090E0FC01EE56FD4FFA83E983A21408F026
:1047000049C0FEE3F71508F445C08D819E818A0DEE
:104710009B1D6F8178850E943F2F582E841588F548
:10472000312C612C9801260D311D3A872987D9013A
:104730008C91882359F0351448F4662DC8010E94E5
:104740002B21882319F0680E3394ECCF60E0898523
:104750009A850E942B21E981FA8129853A853A833D
:104760002983870D871591F0A981BA819D91BA831C
:10477000A983992359F0BFE37B1641F07394919379
:10478000F1CF739420E2E981FA8120833FEFA31AED
:10479000B30AADCFA981BA811C92F601808124E6CB
:1047A00034E130937B0720937A0762E972E05BCFB4
:1047B00085ED8093BC008091680490916904A0917C
:1047C0006A04B0916B040796A11DB11D23E0B69554
:1047D000A795979587952A95D1F72091BC0024FD40
:1047E00003C01092660408954091680450916904D2
:1047F00060916A0470916B04452B462B472B69F33B
:104800000097A105B10541F02AE22A95F1F700C011
:104810000197A109B109E1CF809167040C94311B84
:10482000FC0166870895FC01868590E008951F923B
:104830000F920FB60F9211242F933F938F939F9354
:10484000AF93BF938091110690911206A091130629
:10485000B09114063091100623E0230F2D3758F540
:104860000196A11DB11D209310068093110690930F
:104870001206A0931306B09314068091150690912A
:104880001606A0911706B09118060196A11DB11D3C
:104890008093150690931606A0931706B0931806FA
:1048A000BF91AF919F918F913F912F910F900FBE2C
:1048B0000F901F90189526E8230F0296A11DB11D99
:1048C000D2CF1F920F920FB60F9211248F939F9306
:1048D0008091E1009091E100937F9093E10083FF4C
:1048E0000FC01092E90091E09093EB001092EC0061
:1048F00092E39093ED001092260698E09093F000DA
:1049000082FF22C093E09093E9009091F2009923F6
:1049100019F09AE39093E80090919604992341F05E
:1049200090919604915090939604911101C05D9AD4
:1049300090912506992341F09091250691509093EE
:104940002506911101C0289A84FF18C08091E200C9
:104950008E7E81608093E2008091E1008F7E809363
:10496000E100809197048E7E8061809397049F91EF
:104970008F910F900FBE0F901F90189580FFF7CF6B
:104980008091E2008E7E80618093E2008091E10060
:104990008E7E8093E100809197048E7E8160E5CFCA
:1049A0001F920F920FB60F921124CF92DF92EF92C7
:1049B000FF920F931F932F933F934F935F936F93A8
:1049C0007F938F939F93AF93BF93EF93FF93CF9377
:1049D000DF93CDB7DEB76C97DEBFCDBF1092E90095
:1049E0008091E80083FF25C068E0CE0145960E94D3
:1049F000591182EF8093E8008D8987FF39C090912B
:104A0000E80090FFFCCF982F907609F034C19E8982
:104A10004F89588D2F89F88C911131C0803861F5FC
:104A2000809198048093F1001092F1008EEF8093B2
:104A3000E8006C960FB6F894DEBF0FBECDBFDF91D5
:104A4000CF91FF91EF91BF91AF919F918F917F9106
:104A50006F915F914F913F912F911F910F91FF9017
:104A6000EF90DF90CF900F900FBE0F901F90189592
:104A70009EEF9093E800C7CF1092F100D5CF913010
:104A800059F48111D3CF4130510581F680919804BA
:104A90008D7F80939804CACF933049F48111C6CF9B
:104AA0004130510519F6809198048260F2CF95301B
:104AB00041F48091E80080FFFCCF20682093E30060
:104AC000B5CF963009F0A9C00B8D1C8D22E0109255
:104AD000E9001092940410929304F2122EC01092E6
:104AE0009204109291040E9428111F8299E09983E8
:104AF000FA8291E09E8390EA98879AEF99872091B5
:104B0000930430919404275F3F4F3C832B838D8324
:104B10001092E9001092940410929304109392045E
:104B20000093910449E050E0BE016F5F7F4F80E049
:104B30000E9402110E94281179CF109392040093D1
:104B400091040E94AE0FDC0112960D911C9101158B
:104B5000110509F451C1D801ED91FC910480F58152
:104B6000E02DBE016B5E7F4FC8010995009709F0EB
:104B70003EC1F80100851185EACFF3E0FF120EC0B7
:104B80008F89882309F440C0823061F440E860E1F5
:104B90008EE391E00E944229811148CF81E2809307
:104BA000EB0047CF813029F440E86BE082E391E0ED
:104BB000F1CF833099F70E94AE0FDC011296ED9091
:104BC000FC908E010F5F1F4F6801E114F10479F032
:104BD000D701ED91FC910680F781E02DB801C70166
:104BE0000995080F111DF701E084F184EECFD8017B
:104BF0001C92F60101900020E9F73197BF016C1972
:104C00007D0940E0C601C6CF6CE171E0FB01449133
:104C100050E080E80E94021109CF973009F4BECF1E
:104C2000983021F481E08093F10000CF993009F0B1
:104C3000FDCE837009F0B2CFE4E7F1E081E031E02E
:104C400096E32191222371F08093E9003093EB00E9
:104C5000DF0111972C912093EC009093ED008F5F72
:104C6000873079F78EE78093EA001092EA008F8907
:104C700080932606DBCE8B8D9C8D1092E9001092DE
:104C80009404109293049093920480939104898DDC
:104C9000811192C08E899D89913A49F4813209F03F
:104CA0007DCF47E050E064E071E080E0B3CF913227
:104CB00009F074CF833269F48F89988DB0E0A0E059
:104CC0008093000190930101A0930201B09303012E
:104CD000ADCE803269F48091E80082FFFCCF67E0BE
:104CE00084E091E00E9459118BEF8093E8009ECE02
:104CF000823209F09BCE8F8980930B01EEEFFFE7A4
:104D0000859194918B3F9C4D51F1E0E0F8E08091CA
:104D1000040190910501A0910601B0910701803B2B
:104D20009440A105B105F1F480910B0180FD1AC0FA
:104D3000EE3F8AE0F80789F587E797E7918380835C
:104D4000809160008093950488E19BE00FB6F89411
:104D5000A895809360000FBE9093600067CEEEEF41
:104D6000FAE0D5CF808191818737974709F05ECEF1
:104D7000A89580916000886180936000809195047F
:104D800080936000EE3F2AE0F20789F08091FE0AEE
:104D90009091FF0A9183808349CE808191818737EA
:104DA000980751F29093FF0A8093FE0AC5CF1092A4
:104DB000FF0A1092FE0A3ACE0E94AE0FDC01129654
:104DC0000D911C910115110509F4E8CED801ED9162
:104DD000FC910190F081E02DBE016B5E7F4FC80118
:104DE0000995811123CEF80100851185EBCF1816A6
:104DF00019060CF41BCED2CEF1E0FF12BECE60E25B
:104E000071E004CF1F920F920FB60F9211242F93CF
:104E10003F934F935F936F937F938F939F93AF9342
:104E2000BF93EF93FF938091B900887F803609F498
:104E30004AC0F0F5883209F4A7C018F5803109F4AA
:104E40009BC0B8F4882309F4F9C0883009F494C0F1
:104E5000FF91EF91BF91AF919F918F917F916F9152
:104E60005F914F913F912F910F900FBE0F901F9028
:104E70001895883109F488C0803251F78093640412
:104E800014C0803409F49DC040F48033B9F38833F2
:104E9000F9F68093640485ECB0C0803509F485C0D0
:104EA000883509F496C0883499F60E94D823D0CF6B
:104EB000883909F48CC038F5883729F050F48836E1
:104EC00011F0803729F683E080936604109239044C
:104ED00057C0883809F47BC0803919F0803809F050
:104EE000B7CF80913904803208F071C0E091390465
:104EF00081E08E0F809339048091BB00F0E0E75E83
:104F0000FB4F80833DC0803B39F0E0F4803A09F4E8
:104F100079C0883A09F09CCF84E0809366041092AF
:104F2000180410921704E0913C04F0913D04099597
:104F30008091170481110FC081E0809317041092B3
:104F4000F70309C0803C09F4A6CF883C09F4A3CF3D
:104F5000883B09F07DCFE091180481E08E0F8093AB
:104F60001804F0E0E950FC4F80818093BB009091E1
:104F700018048091170429C0809141048093BB00DC
:104F800085EC8093BC0064CF9091630480916204AF
:104F9000981758F5E091630481E08E0F80936304C5
:104FA000F0E0EE5BFB4F8081E9CFE091630481E0AC
:104FB0008E0F809363048091BB00F0E0EE5BFB4FAB
:104FC000808390916304809162049817C8F285E809
:104FD000D8CFE091630481E08E0F809363048091C9
:104FE000BB00F0E0EE5BFB4F808380916504811194
:104FF0005CCF81E08093400484EA8093BC001092EF
:10500000660426CF85EC8093BC00109266048091E4
:105010003904803230F4E0913904F0E0E75EFB4F70
:1050200010826091390470E0E0913A04F0913B0401
:1050300089E194E00995109239040ACF1092640432
:1050400034CF7F928F929F92AF92BF92CF92DF9296
:10505000EF92FF920F931F93CF93DF938C01762EE5
:10506000F80183819481A581B681892B8A2B8B2BB2
:10507000D1F00E946D10C090D203D090D303E09085
:10508000D403F090D5036C197D098E099F09D801CE
:105090001396CD90DD90ED90FC9016976C157D05E4
:1050A0008E059F05E8F20E946D106093D203709305
:1050B000D3038093D4039093D503D8011B96ED912D
:1050C000FC911C97309749F017964D915D916D9129
:1050D0007C911A97872D0995782EC0919B04D091C9
:1050E0009C0492EBC92E93E0D92E22EDA22E23E050
:1050F000B22E7601209749F1AE14BF0431F18E8DA6
:105100008823F9F0E881F981828493840680F7810D
:10511000E02DCE010995BC01CE01F4010995D7011E
:105120008D939C93D80111968D919C918436910515
:1051300008F41E860E80DF81C02DB2E0EB0EF11C5C
:10514000D9CFF70111821082EDCFC0919B04D0918D
:105150009C0480E1E82EF12C2097B1F08E8D8823FD
:1051600061F04C815D816A817B81E881F9810280F7
:10517000F381E02D272DCE0109950E80DF81C02D12
:10518000E1E0EE1AF10841F7C0919B04D0919C0434
:105190002097C9F0F2EDCF16F3E0DF06A1F08E8D77
:1051A000882351F0D6016D917C91E881F9810484C6
:1051B000F585E02DCE0109950E80DF81C02DB2E08E
:1051C000CB0ED11CE5CF8091B0039091B103EC01DF
:1051D0002196D093B103C093B0034997ACF10E94DC
:1051E000C510C090AC03D090AD03E090AE03F0903A
:1051F000AF039B01AC012C193D094E095F0921F455
:1052000021E030E040E050E088EE93E0C89FB0013C
:10521000C99F700DD89F700D1124072E000C880BAC
:10522000990B0E940E2FF801328321831092B10353
:105230001092B0030E94C5106093AC037093AD034D
:105240008093AE039093AF03DF91CF911F910F91A5
:10525000FF90EF90DF90CF90BF90AF909F908F9096
:105260007F9008956091E30683EE96E00C942128E8
:105270001F920F920FB60F9211240F900FBE0F9036
:105280001F901895EF92FF920F931F93CF93DF9388
:10529000F82E192FE62E042F81E0860F880F0E942A
:1052A000D41083E00E94D410CF2DD12FEC0EFD2E10
:1052B000F11CCE15DF05B9F007FF13C0FE01849184
:1052C0000E94D410182F80E00E94D41081232196D0
:1052D0008111EFCFDF91CF911F910F91FF90EF9050
:1052E00008958881EDCF81E0F5CFCF9310928A06A3
:1052F0001092890688EE93E0A0E0B0E080938B06E0
:1053000090938C06A0938D06B0938E0628EA31E028
:1053100030938806209387062FEF3FEF3093940653
:10532000209393061092DA061092D9068093DB063A
:105330009093DC06A093DD06B093DE068AEB91E045
:105340009093D8068093D7068FEF8093E306109250
:10535000E5061092E4061092EF061092EE064FEF6B
:105360005FEFBA014093EA065093EB066093EC06B8
:105370007093ED061092E6061092E7061092E8068A
:105380001092E9064AEF50E060E070E04093F006CA
:105390005093F1066093F2067093F306109277072C
:1053A000109276072DED3EE0309305082093040817
:1053B0001092070810920608109209081092080827
:1053C000109290072CEC31E030937507209374070E
:1053D000109279071092780710928D071092840727
:1053E00010928507109286071092870780938E0788
:1053F00080939207E6E9F7E08CEA97E0CFEFC1935C
:105400008E179F07E1F785E093E190937D078093E6
:105410007C078AEF93E190937F0780937E0789EA68
:105420009BE1909381078093800786E69AE19093B1
:1054300083078093820730E020E040E069E088E75E
:1054400097E00E9405131092D3071092D20787EEBF
:105450009EE09093AD078093AC0784EF96E0909325
:10546000B1078093B00781E08093B2071092B30731
:105470001092E107109201081092FD078093020834
:105480008093030884ED91E09093AF078093AE077B
:1054900088E797E00E94B5141092CB071092CA07D4
:1054A0001092CF071092CE078FEF9FEF9093CD070A
:1054B0008093CC079093D1078093D007E091AE07FB
:1054C000F091AF070280F381E02D88E797E009951E
:1054D00086E59FE09093D5078093D4071092E40768
:1054E000C093A107C093A207C093A307CF910895CB
:1054F000CF93DF93CDB7DEB7A1970FB6F894DEBF99
:105500000FBECDBF789484B5826084BD84B58160C0
:1055100084BD85B5826085BD85B5816085BD80917E
:105520006E00816080936E001092810080918100F6
:1055300082608093810080918100816080938100EE
:1055400080918000816080938000809191008260D2
:10555000809391008091910081608093910080916F
:1055600090008160809390008091C100846080935E
:10557000C1008091C10082608093C1008091C10010
:1055800081608093C1008091C30081608093C300DB
:105590008091C00082608093C0008091C2008160D1
:1055A0008093C20080917A00846080937A00809119
:1055B0007A00826080937A0080917A008160809383
:1055C0007A0080917A00806880937A001092260693
:1055D00010929804109297048091D7008160809374
:1055E000D70080EA8093D80089B5806189BD89B5EC
:1055F000826089BD09B400FEFDCF61E070E080E00B
:1056000090E00E9492108091D8008F7C80618093FE
:10561000D8008091E000807F8093E0008091E100DD
:105620008E7E8093E1008DE08093E200559A209A6F
:105630008FEF9FEF90939406809393068091BE0422
:10564000811150C01092A00410929F041092A204E5
:105650001092A1041092A4041092A3041092B60414
:105660001092B5048FEF8093A5048093A6048093D5
:10567000A7048093A8048093A9048093AA0481E0DE
:105680008093AB041092B40492E09093BA04809398
:10569000BB0480919B0490919C04892B31F48DE98B
:1056A00094E090939C0480939B04E0919904F09182
:1056B0009A04309721F08DE994E0978386838DE9F1
:1056C00094E090939A04809399041092BD041092F0
:1056D000BC0482E991E090939E0480939D0481E054
:1056E0008093BE04579A87E296E09093A00480933B
:1056F0009F0480E290E09093A2048093A1048091A3
:10570000E6069091E706A091E806B091E906843C90
:1057100029E09207A105B10520F484EC99E0A0E00E
:10572000B0E08093E6069093E706A093E806B09376
:10573000E90620910D0130E0AFEFB0E00E94302F7C
:1057400024E630E040E050E00E94E42E2093E3069F
:1057500019821A821B82CE0101960E94590F0E9463
:105760003229E0917C07F0917D0730E020E040E0B5
:105770006AE088E797E0099588E797E00E948E2223
:1057800088E797E00E9464228111FACF60E088E701
:1057900097E00E94F519E0917C07F0917D0730E0D9
:1057A00020E040E06BE088E797E009950E94670FF2
:1057B00081E08093E1078091D2079091D3078650D2
:1057C000924009F495C0E6E0F2E0F093D307E0934D
:1057D000D207E491E093E507E7E0F2E0E491E0939B
:1057E000E607E8E0F2E0E491E093E707E9E0F2E0C1
:1057F000E491E093E807EAE0F2E0E491E093E9075E
:10580000EBE0F2E0E491E093EA07ECE0F2E0E4910F
:10581000E093EB07EDE0F2E0E491E093EC07EEE0DB
:10582000F2E0E491E093ED07EFE0F2E0E491E09341
:10583000EE07E0E1F2E0E491E093EF07E1E1F2E06E
:10584000E491E093F007E2E1F2E0E491E093F10704
:10585000E3E1F2E0E491E093F207E4E1F2E0E491C5
:10586000E093F307E5E1F2E0E491E093F407E6E189
:10587000F2E0E491E093F50761E186E092E00E94B6
:1058800093179093F7078093F60763E186E092E021
:105890000E9493179093F9078093F80765E186E0DB
:1058A00092E00E9493179093FB078093FA078091F0
:1058B000D2079091D307892BD9F08091F20780937A
:1058C000FE074091F3074093FF079091FD0799234E
:1058D00079F0913009F09AC09091F407891714F487
:1058E0009093FE078091F507841714F48093FF07C7
:1058F0008091FE07E82F880FFF0B4091FF07042ED1
:10590000000C550B57FF03C0519541955109BF013C
:10591000640F751F161617060CF093C09B016531B6
:10592000710514F425E130E0C901861B970B97FD42
:1059300001969595879597FF02C090E080E08E0FC5
:105940009F1FB901680F791F260F371F420F531F82
:105950004134510544F040545109841B950B641B9C
:10596000750B241B350B97FF6FC0681B790B281B29
:10597000390B80E08093C6046034710514F06FE346
:1059800070E06093C7042034310514F02FE330E059
:105990002093C8046091EE07662339F070E080E838
:1059A00090E00E943F2F60930C0180910C018111C7
:1059B00003C085E180930C010E94A02294E6892E09
:1059C000912CA12CB12C2AE0422E512C612C712C4F
:1059D00087E896E00E946D12892B09F4C0C187E820
:1059E00096E00E942B128A30910509F09CC18091AB
:1059F0000F0600910D0610910E06882369F1109292
:105A00000E0610920D0610920F06E2CF3091EF07AE
:105A10002091F107082E000C990B622F022E000C2A
:105A2000770B630F711D37FD7A95861797071CF466
:105A3000320F3093FE0724170CF05ACF2093FF0744
:105A400057CF61E070E06ECF803491050CF492CFB7
:105A50008FE390E08FCF89010115110509F491C002
:105A6000980121503109F901E353FB4F80818032C5
:105A700091F3893081F310930E0600930D06F8011F
:105A8000E353FB4F10826AED71E08DEC94E00E94CD
:105A90008B2F892B09F07AC084E791E00E940112D4
:105AA0006EED71E087E896E00E94432219821A8227
:105AB0001B82CE0101960E94590F0E94322907E2F3
:105AC00016E0C12CD12C760119821A821B82CE01DC
:105AD00001960E94590F2FEFF80120832183228322
